{
	"HelloWeb3.sol": {
		"HelloWeb3": {
			"abi": [
				{
					"inputs": [],
					"name": "_address",
					"outputs": [
						{
							"internalType": "address",
							"name": "",
							"type": "address"
						}
					],
					"stateMutability": "view",
					"type": "function"
				},
				{
					"inputs": [],
					"name": "_address1",
					"outputs": [
						{
							"internalType": "address payable",
							"name": "",
							"type": "address"
						}
					],
					"stateMutability": "view",
					"type": "function"
				},
				{
					"inputs": [],
					"name": "_bool",
					"outputs": [
						{
							"internalType": "bool",
							"name": "",
							"type": "bool"
						}
					],
					"stateMutability": "view",
					"type": "function"
				},
				{
					"inputs": [],
					"name": "_bool1",
					"outputs": [
						{
							"internalType": "bool",
							"name": "",
							"type": "bool"
						}
					],
					"stateMutability": "view",
					"type": "function"
				},
				{
					"inputs": [],
					"name": "_bool2",
					"outputs": [
						{
							"internalType": "bool",
							"name": "",
							"type": "bool"
						}
					],
					"stateMutability": "view",
					"type": "function"
				},
				{
					"inputs": [],
					"name": "_bool3",
					"outputs": [
						{
							"internalType": "bool",
							"name": "",
							"type": "bool"
						}
					],
					"stateMutability": "view",
					"type": "function"
				},
				{
					"inputs": [],
					"name": "_bool4",
					"outputs": [
						{
							"internalType": "bool",
							"name": "",
							"type": "bool"
						}
					],
					"stateMutability": "view",
					"type": "function"
				},
				{
					"inputs": [],
					"name": "_bool5",
					"outputs": [
						{
							"internalType": "bool",
							"name": "",
							"type": "bool"
						}
					],
					"stateMutability": "view",
					"type": "function"
				},
				{
					"inputs": [],
					"name": "_byte",
					"outputs": [
						{
							"internalType": "bytes1",
							"name": "",
							"type": "bytes1"
						}
					],
					"stateMutability": "view",
					"type": "function"
				},
				{
					"inputs": [],
					"name": "_byte32",
					"outputs": [
						{
							"internalType": "bytes32",
							"name": "",
							"type": "bytes32"
						}
					],
					"stateMutability": "view",
					"type": "function"
				},
				{
					"inputs": [],
					"name": "_int",
					"outputs": [
						{
							"internalType": "int256",
							"name": "",
							"type": "int256"
						}
					],
					"stateMutability": "view",
					"type": "function"
				},
				{
					"inputs": [],
					"name": "_number",
					"outputs": [
						{
							"internalType": "uint256",
							"name": "",
							"type": "uint256"
						}
					],
					"stateMutability": "view",
					"type": "function"
				},
				{
					"inputs": [],
					"name": "_number1",
					"outputs": [
						{
							"internalType": "uint256",
							"name": "",
							"type": "uint256"
						}
					],
					"stateMutability": "view",
					"type": "function"
				},
				{
					"inputs": [],
					"name": "_number2",
					"outputs": [
						{
							"internalType": "uint256",
							"name": "",
							"type": "uint256"
						}
					],
					"stateMutability": "view",
					"type": "function"
				},
				{
					"inputs": [],
					"name": "_number3",
					"outputs": [
						{
							"internalType": "uint256",
							"name": "",
							"type": "uint256"
						}
					],
					"stateMutability": "view",
					"type": "function"
				},
				{
					"inputs": [],
					"name": "_numberbool",
					"outputs": [
						{
							"internalType": "bool",
							"name": "",
							"type": "bool"
						}
					],
					"stateMutability": "view",
					"type": "function"
				},
				{
					"inputs": [],
					"name": "_string",
					"outputs": [
						{
							"internalType": "string",
							"name": "",
							"type": "string"
						}
					],
					"stateMutability": "view",
					"type": "function"
				},
				{
					"inputs": [],
					"name": "_uint",
					"outputs": [
						{
							"internalType": "uint256",
							"name": "",
							"type": "uint256"
						}
					],
					"stateMutability": "view",
					"type": "function"
				},
				{
					"inputs": [],
					"name": "balance",
					"outputs": [
						{
							"internalType": "uint256",
							"name": "",
							"type": "uint256"
						}
					],
					"stateMutability": "view",
					"type": "function"
				}
			],
			"devdoc": {
				"kind": "dev",
				"methods": {},
				"version": 1
			},
			"evm": {
				"assembly": "    /* \"HelloWeb3.sol\":59:976  contract HelloWeb3{... */\n  mstore(0x40, 0x80)\n    /* \"HelloWeb3.sol\":84:121  string public _string = \"Hello Web3!\" */\n  mload(0x40)\n  dup1\n  0x40\n  add\n  0x40\n  mstore\n  dup1\n  0x0b\n  dup2\n  mstore\n  0x20\n  add\n  0x48656c6c6f205765623321000000000000000000000000000000000000000000\n  dup2\n  mstore\n  pop\n  0x00\n  swap1\n  dup2\n  tag_1\n  swap2\n  swap1\n  tag_2\n  jump\t// in\ntag_1:\n  pop\n    /* \"HelloWeb3.sol\":171:175  true */\n  0x01\n    /* \"HelloWeb3.sol\":151:175  bool public _bool = true */\n  dup1\n  exp(0x0100, 0x00)\n  dup2\n  sload\n  dup2\n  0xff\n  mul\n  not\n  and\n  swap1\n  dup4\n  iszero\n  iszero\n  mul\n  or\n  swap1\n  sstore\n  pop\n    /* \"HelloWeb3.sol\":204:209  _bool */\n  0x01\n  0x00\n  swap1\n  sload\n  swap1\n  0x0100\n  exp\n  swap1\n  div\n  0xff\n  and\n    /* \"HelloWeb3.sol\":203:209  !_bool */\n  iszero\n    /* \"HelloWeb3.sol\":182:209  bool public _bool1 = !_bool */\n  0x01\n  dup1\n  0x0100\n  exp\n  dup2\n  sload\n  dup2\n  0xff\n  mul\n  not\n  and\n  swap1\n  dup4\n  iszero\n  iszero\n  mul\n  or\n  swap1\n  sstore\n  pop\n    /* \"HelloWeb3.sol\":237:242  _bool */\n  0x01\n  0x00\n  swap1\n  sload\n  swap1\n  0x0100\n  exp\n  swap1\n  div\n  0xff\n  and\n    /* \"HelloWeb3.sol\":237:252  _bool && _bool1 */\n  dup1\n  iszero\n  tag_3\n  jumpi\n  pop\n    /* \"HelloWeb3.sol\":246:252  _bool1 */\n  0x01\n  dup1\n  sload\n  swap1\n  0x0100\n  exp\n  swap1\n  div\n  0xff\n  and\n    /* \"HelloWeb3.sol\":237:252  _bool && _bool1 */\ntag_3:\n    /* \"HelloWeb3.sol\":216:252  bool public _bool2 = _bool && _bool1 */\n  0x01\n  exp(0x0100, 0x02)\n  dup2\n  sload\n  dup2\n  0xff\n  mul\n  not\n  and\n  swap1\n  dup4\n  iszero\n  iszero\n  mul\n  or\n  swap1\n  sstore\n  pop\n    /* \"HelloWeb3.sol\":280:285  _bool */\n  0x01\n  0x00\n  swap1\n  sload\n  swap1\n  0x0100\n  exp\n  swap1\n  div\n  0xff\n  and\n    /* \"HelloWeb3.sol\":280:295  _bool || _bool1 */\n  dup1\n  tag_4\n  jumpi\n  pop\n    /* \"HelloWeb3.sol\":289:295  _bool1 */\n  0x01\n  dup1\n  sload\n  swap1\n  0x0100\n  exp\n  swap1\n  div\n  0xff\n  and\n    /* \"HelloWeb3.sol\":280:295  _bool || _bool1 */\ntag_4:\n    /* \"HelloWeb3.sol\":259:295  bool public _bool3 = _bool || _bool1 */\n  0x01\n  exp(0x0100, 0x03)\n  dup2\n  sload\n  dup2\n  0xff\n  mul\n  not\n  and\n  swap1\n  dup4\n  iszero\n  iszero\n  mul\n  or\n  swap1\n  sstore\n  pop\n    /* \"HelloWeb3.sol\":332:338  _bool1 */\n  0x01\n  dup1\n  sload\n  swap1\n  0x0100\n  exp\n  swap1\n  div\n  0xff\n  and\n    /* \"HelloWeb3.sol\":323:338  _bool == _bool1 */\n  iszero\n  iszero\n    /* \"HelloWeb3.sol\":323:328  _bool */\n  0x01\n  0x00\n  swap1\n  sload\n  swap1\n  0x0100\n  exp\n  swap1\n  div\n  0xff\n  and\n    /* \"HelloWeb3.sol\":323:338  _bool == _bool1 */\n  iszero\n  iszero\n  eq\n    /* \"HelloWeb3.sol\":302:338  bool public _bool4 = _bool == _bool1 */\n  0x01\n  exp(0x0100, 0x04)\n  dup2\n  sload\n  dup2\n  0xff\n  mul\n  not\n  and\n  swap1\n  dup4\n  iszero\n  iszero\n  mul\n  or\n  swap1\n  sstore\n  pop\n    /* \"HelloWeb3.sol\":375:381  _bool1 */\n  0x01\n  dup1\n  sload\n  swap1\n  0x0100\n  exp\n  swap1\n  div\n  0xff\n  and\n    /* \"HelloWeb3.sol\":366:381  _bool != _bool1 */\n  iszero\n  iszero\n    /* \"HelloWeb3.sol\":366:371  _bool */\n  0x01\n  0x00\n  swap1\n  sload\n  swap1\n  0x0100\n  exp\n  swap1\n  div\n  0xff\n  and\n    /* \"HelloWeb3.sol\":366:381  _bool != _bool1 */\n  iszero\n  iszero\n  eq\n  iszero\n    /* \"HelloWeb3.sol\":345:381  bool public _bool5 = _bool != _bool1 */\n  0x01\n  exp(0x0100, 0x05)\n  dup2\n  sload\n  dup2\n  0xff\n  mul\n  not\n  and\n  swap1\n  dup4\n  iszero\n  iszero\n  mul\n  or\n  swap1\n  sstore\n  pop\n    /* \"HelloWeb3.sol\":424:426  -1 */\n  0xffffffffffffffffffffffffffffffffffffffffffffffffffffffffffffffff\n    /* \"HelloWeb3.sol\":406:426  int public _int = -1 */\n  0x02\n  sstore\n    /* \"HelloWeb3.sol\":453:454  1 */\n  0x01\n    /* \"HelloWeb3.sol\":433:454  uint public _uint = 1 */\n  0x03\n  sstore\n    /* \"HelloWeb3.sol\":486:494  20220330 */\n  0x013489aa\n    /* \"HelloWeb3.sol\":461:494  uint256 public _number = 20220330 */\n  0x04\n  sstore\n    /* \"HelloWeb3.sol\":537:538  1 */\n  0x01\n    /* \"HelloWeb3.sol\":527:534  _number */\n  sload(0x04)\n    /* \"HelloWeb3.sol\":527:538  _number + 1 */\n  tag_5\n  swap2\n  swap1\n  tag_6\n  jump\t// in\ntag_5:\n    /* \"HelloWeb3.sol\":501:538  uint256 public _number1 = _number + 1 */\n  0x05\n  sstore\n    /* \"HelloWeb3.sol\":571:575  2**2 */\n  0x04\n    /* \"HelloWeb3.sol\":545:575  uint256 public _number2 = 2**2 */\n  0x06\n  sstore\n    /* \"HelloWeb3.sol\":608:613  7 % 2 */\n  0x01\n    /* \"HelloWeb3.sol\":582:613  uint256 public _number3 = 7 % 2 */\n  0x07\n  sstore\n    /* \"HelloWeb3.sol\":657:665  _number3 */\n  sload(0x07)\n    /* \"HelloWeb3.sol\":646:654  _number2 */\n  sload(0x06)\n    /* \"HelloWeb3.sol\":646:665  _number2 > _number3 */\n  gt\n    /* \"HelloWeb3.sol\":620:665  bool public _numberbool = _number2 > _number3 */\n  0x08\n  exp(0x0100, 0x00)\n  dup2\n  sload\n  dup2\n  0xff\n  mul\n  not\n  and\n  swap1\n  dup4\n  iszero\n  iszero\n  mul\n  or\n  swap1\n  sstore\n  pop\n    /* \"HelloWeb3.sol\":716:758  0x5B38Da6a701c568545dCfcB03FcB875f56beddC4 */\n  0x5b38da6a701c568545dcfcb03fcb875f56beddc4\n    /* \"HelloWeb3.sol\":690:758  address public _address = 0x5B38Da6a701c568545dCfcB03FcB875f56beddC4 */\n  0x08\n  exp(0x0100, 0x01)\n  dup2\n  sload\n  dup2\n  0xffffffffffffffffffffffffffffffffffffffff\n  mul\n  not\n  and\n  swap1\n  dup4\n  0xffffffffffffffffffffffffffffffffffffffff\n  and\n  mul\n  or\n  swap1\n  sstore\n  pop\n    /* \"HelloWeb3.sol\":808:816  _address */\n  0x08\n  0x01\n  swap1\n  sload\n  swap1\n  0x0100\n  exp\n  swap1\n  div\n  0xffffffffffffffffffffffffffffffffffffffff\n  and\n    /* \"HelloWeb3.sol\":765:817  address payable public _address1 = payable(_address) */\n  0x09\n  exp(0x0100, 0x00)\n  dup2\n  sload\n  dup2\n  0xffffffffffffffffffffffffffffffffffffffff\n  mul\n  not\n  and\n  swap1\n  dup4\n  0xffffffffffffffffffffffffffffffffffffffff\n  and\n  mul\n  or\n  swap1\n  sstore\n  pop\n    /* \"HelloWeb3.sol\":849:858  _address1 */\n  0x09\n  0x00\n  swap1\n  sload\n  swap1\n  0x0100\n  exp\n  swap1\n  div\n  0xffffffffffffffffffffffffffffffffffffffff\n  and\n    /* \"HelloWeb3.sol\":849:866  _address1.balance */\n  0xffffffffffffffffffffffffffffffffffffffff\n  and\n  balance\n    /* \"HelloWeb3.sol\":824:866  uint256 public balance = _address1.balance */\n  0x0a\n  sstore\n    /* \"HelloWeb3.sol\":888:927  bytes32 public _byte32 = \"MiniSolidity\" */\n  sstore(0x0b, 0x4d696e69536f6c69646974790000000000000000000000000000000000000000)\n    /* \"HelloWeb3.sol\":956:963  _byte32 */\n  sload(0x0b)\n    /* \"HelloWeb3.sol\":964:965  0 */\n  0x00\n    /* \"HelloWeb3.sol\":956:966  _byte32[0] */\n  0x20\n  dup2\n  lt\n  tag_7\n  jumpi\n  tag_8\n  tag_9\n  jump\t// in\ntag_8:\ntag_7:\n  byte\n  0xf8\n  shl\n    /* \"HelloWeb3.sol\":934:966  bytes1 public _byte = _byte32[0] */\n  0x0c\n  exp(0x0100, 0x00)\n  dup2\n  sload\n  dup2\n  0xff\n  mul\n  not\n  and\n  swap1\n  dup4\n  0xf8\n  shr\n  mul\n  or\n  swap1\n  sstore\n  pop\n    /* \"HelloWeb3.sol\":59:976  contract HelloWeb3{... */\n  callvalue\n  dup1\n  iszero\n  tag_10\n  jumpi\n  0x00\n  dup1\n  revert\ntag_10:\n  pop\n  jump(tag_11)\n    /* \"#utility.yul\":7:106   */\ntag_12:\n    /* \"#utility.yul\":59:65   */\n  0x00\n    /* \"#utility.yul\":93:98   */\n  dup2\n    /* \"#utility.yul\":87:99   */\n  mload\n    /* \"#utility.yul\":77:99   */\n  swap1\n  pop\n    /* \"#utility.yul\":7:106   */\n  swap2\n  swap1\n  pop\n  jump\t// out\n    /* \"#utility.yul\":112:292   */\ntag_13:\n    /* \"#utility.yul\":160:237   */\n  0x4e487b7100000000000000000000000000000000000000000000000000000000\n    /* \"#utility.yul\":157:158   */\n  0x00\n    /* \"#utility.yul\":150:238   */\n  mstore\n    /* \"#utility.yul\":257:261   */\n  0x41\n    /* \"#utility.yul\":254:255   */\n  0x04\n    /* \"#utility.yul\":247:262   */\n  mstore\n    /* \"#utility.yul\":281:285   */\n  0x24\n    /* \"#utility.yul\":278:279   */\n  0x00\n    /* \"#utility.yul\":271:286   */\n  revert\n    /* \"#utility.yul\":298:478   */\ntag_14:\n    /* \"#utility.yul\":346:423   */\n  0x4e487b7100000000000000000000000000000000000000000000000000000000\n    /* \"#utility.yul\":343:344   */\n  0x00\n    /* \"#utility.yul\":336:424   */\n  mstore\n    /* \"#utility.yul\":443:447   */\n  0x22\n    /* \"#utility.yul\":440:441   */\n  0x04\n    /* \"#utility.yul\":433:448   */\n  mstore\n    /* \"#utility.yul\":467:471   */\n  0x24\n    /* \"#utility.yul\":464:465   */\n  0x00\n    /* \"#utility.yul\":457:472   */\n  revert\n    /* \"#utility.yul\":484:804   */\ntag_15:\n    /* \"#utility.yul\":528:534   */\n  0x00\n    /* \"#utility.yul\":565:566   */\n  0x02\n    /* \"#utility.yul\":559:563   */\n  dup3\n    /* \"#utility.yul\":555:567   */\n  div\n    /* \"#utility.yul\":545:567   */\n  swap1\n  pop\n    /* \"#utility.yul\":612:613   */\n  0x01\n    /* \"#utility.yul\":606:610   */\n  dup3\n    /* \"#utility.yul\":602:614   */\n  and\n    /* \"#utility.yul\":633:651   */\n  dup1\n    /* \"#utility.yul\":623:704   */\n  tag_38\n  jumpi\n    /* \"#utility.yul\":689:693   */\n  0x7f\n    /* \"#utility.yul\":681:687   */\n  dup3\n    /* \"#utility.yul\":677:694   */\n  and\n    /* \"#utility.yul\":667:694   */\n  swap2\n  pop\n    /* \"#utility.yul\":623:704   */\ntag_38:\n    /* \"#utility.yul\":751:753   */\n  0x20\n    /* \"#utility.yul\":743:749   */\n  dup3\n    /* \"#utility.yul\":740:754   */\n  lt\n    /* \"#utility.yul\":720:738   */\n  dup2\n    /* \"#utility.yul\":717:755   */\n  sub\n    /* \"#utility.yul\":714:798   */\n  tag_39\n  jumpi\n    /* \"#utility.yul\":770:788   */\n  tag_40\n  tag_14\n  jump\t// in\ntag_40:\n    /* \"#utility.yul\":714:798   */\ntag_39:\n    /* \"#utility.yul\":535:804   */\n  pop\n    /* \"#utility.yul\":484:804   */\n  swap2\n  swap1\n  pop\n  jump\t// out\n    /* \"#utility.yul\":810:951   */\ntag_16:\n    /* \"#utility.yul\":859:863   */\n  0x00\n    /* \"#utility.yul\":882:885   */\n  dup2\n    /* \"#utility.yul\":874:885   */\n  swap1\n  pop\n    /* \"#utility.yul\":905:908   */\n  dup2\n    /* \"#utility.yul\":902:903   */\n  0x00\n    /* \"#utility.yul\":895:909   */\n  mstore\n    /* \"#utility.yul\":939:943   */\n  0x20\n    /* \"#utility.yul\":936:937   */\n  0x00\n    /* \"#utility.yul\":926:944   */\n  keccak256\n    /* \"#utility.yul\":918:944   */\n  swap1\n  pop\n    /* \"#utility.yul\":810:951   */\n  swap2\n  swap1\n  pop\n  jump\t// out\n    /* \"#utility.yul\":957:1050   */\ntag_17:\n    /* \"#utility.yul\":994:1000   */\n  0x00\n    /* \"#utility.yul\":1041:1043   */\n  0x20\n    /* \"#utility.yul\":1036:1038   */\n  0x1f\n    /* \"#utility.yul\":1029:1034   */\n  dup4\n    /* \"#utility.yul\":1025:1039   */\n  add\n    /* \"#utility.yul\":1021:1044   */\n  div\n    /* \"#utility.yul\":1011:1044   */\n  swap1\n  pop\n    /* \"#utility.yul\":957:1050   */\n  swap2\n  swap1\n  pop\n  jump\t// out\n    /* \"#utility.yul\":1056:1163   */\ntag_18:\n    /* \"#utility.yul\":1100:1108   */\n  0x00\n    /* \"#utility.yul\":1150:1155   */\n  dup3\n    /* \"#utility.yul\":1144:1148   */\n  dup3\n    /* \"#utility.yul\":1140:1156   */\n  shl\n    /* \"#utility.yul\":1119:1156   */\n  swap1\n  pop\n    /* \"#utility.yul\":1056:1163   */\n  swap3\n  swap2\n  pop\n  pop\n  jump\t// out\n    /* \"#utility.yul\":1169:1562   */\ntag_19:\n    /* \"#utility.yul\":1238:1244   */\n  0x00\n    /* \"#utility.yul\":1288:1289   */\n  0x08\n    /* \"#utility.yul\":1276:1286   */\n  dup4\n    /* \"#utility.yul\":1272:1290   */\n  mul\n    /* \"#utility.yul\":1311:1408   */\n  tag_45\n    /* \"#utility.yul\":1341:1407   */\n  0xffffffffffffffffffffffffffffffffffffffffffffffffffffffffffffffff\n    /* \"#utility.yul\":1330:1339   */\n  dup3\n    /* \"#utility.yul\":1311:1408   */\n  tag_18\n  jump\t// in\ntag_45:\n    /* \"#utility.yul\":1429:1468   */\n  tag_46\n    /* \"#utility.yul\":1459:1467   */\n  dup7\n    /* \"#utility.yul\":1448:1457   */\n  dup4\n    /* \"#utility.yul\":1429:1468   */\n  tag_18\n  jump\t// in\ntag_46:\n    /* \"#utility.yul\":1417:1468   */\n  swap6\n  pop\n    /* \"#utility.yul\":1501:1505   */\n  dup1\n    /* \"#utility.yul\":1497:1506   */\n  not\n    /* \"#utility.yul\":1490:1495   */\n  dup5\n    /* \"#utility.yul\":1486:1507   */\n  and\n    /* \"#utility.yul\":1477:1507   */\n  swap4\n  pop\n    /* \"#utility.yul\":1550:1554   */\n  dup1\n    /* \"#utility.yul\":1540:1548   */\n  dup7\n    /* \"#utility.yul\":1536:1555   */\n  and\n    /* \"#utility.yul\":1529:1534   */\n  dup5\n    /* \"#utility.yul\":1526:1556   */\n  or\n    /* \"#utility.yul\":1516:1556   */\n  swap3\n  pop\n    /* \"#utility.yul\":1245:1562   */\n  pop\n  pop\n    /* \"#utility.yul\":1169:1562   */\n  swap4\n  swap3\n  pop\n  pop\n  pop\n  jump\t// out\n    /* \"#utility.yul\":1568:1645   */\ntag_20:\n    /* \"#utility.yul\":1605:1612   */\n  0x00\n    /* \"#utility.yul\":1634:1639   */\n  dup2\n    /* \"#utility.yul\":1623:1639   */\n  swap1\n  pop\n    /* \"#utility.yul\":1568:1645   */\n  swap2\n  swap1\n  pop\n  jump\t// out\n    /* \"#utility.yul\":1651:1711   */\ntag_21:\n    /* \"#utility.yul\":1679:1682   */\n  0x00\n    /* \"#utility.yul\":1700:1705   */\n  dup2\n    /* \"#utility.yul\":1693:1705   */\n  swap1\n  pop\n    /* \"#utility.yul\":1651:1711   */\n  swap2\n  swap1\n  pop\n  jump\t// out\n    /* \"#utility.yul\":1717:1859   */\ntag_22:\n    /* \"#utility.yul\":1767:1776   */\n  0x00\n    /* \"#utility.yul\":1800:1853   */\n  tag_50\n    /* \"#utility.yul\":1818:1852   */\n  tag_51\n    /* \"#utility.yul\":1827:1851   */\n  tag_52\n    /* \"#utility.yul\":1845:1850   */\n  dup5\n    /* \"#utility.yul\":1827:1851   */\n  tag_20\n  jump\t// in\ntag_52:\n    /* \"#utility.yul\":1818:1852   */\n  tag_21\n  jump\t// in\ntag_51:\n    /* \"#utility.yul\":1800:1853   */\n  tag_20\n  jump\t// in\ntag_50:\n    /* \"#utility.yul\":1787:1853   */\n  swap1\n  pop\n    /* \"#utility.yul\":1717:1859   */\n  swap2\n  swap1\n  pop\n  jump\t// out\n    /* \"#utility.yul\":1865:1940   */\ntag_23:\n    /* \"#utility.yul\":1908:1911   */\n  0x00\n    /* \"#utility.yul\":1929:1934   */\n  dup2\n    /* \"#utility.yul\":1922:1934   */\n  swap1\n  pop\n    /* \"#utility.yul\":1865:1940   */\n  swap2\n  swap1\n  pop\n  jump\t// out\n    /* \"#utility.yul\":1946:2215   */\ntag_24:\n    /* \"#utility.yul\":2056:2095   */\n  tag_55\n    /* \"#utility.yul\":2087:2094   */\n  dup4\n    /* \"#utility.yul\":2056:2095   */\n  tag_22\n  jump\t// in\ntag_55:\n    /* \"#utility.yul\":2117:2208   */\n  tag_56\n    /* \"#utility.yul\":2166:2207   */\n  tag_57\n    /* \"#utility.yul\":2190:2206   */\n  dup3\n    /* \"#utility.yul\":2166:2207   */\n  tag_23\n  jump\t// in\ntag_57:\n    /* \"#utility.yul\":2158:2164   */\n  dup5\n    /* \"#utility.yul\":2151:2155   */\n  dup5\n    /* \"#utility.yul\":2145:2156   */\n  sload\n    /* \"#utility.yul\":2117:2208   */\n  tag_19\n  jump\t// in\ntag_56:\n    /* \"#utility.yul\":2111:2115   */\n  dup3\n    /* \"#utility.yul\":2104:2209   */\n  sstore\n    /* \"#utility.yul\":2022:2215   */\n  pop\n    /* \"#utility.yul\":1946:2215   */\n  pop\n  pop\n  pop\n  jump\t// out\n    /* \"#utility.yul\":2221:2294   */\ntag_25:\n    /* \"#utility.yul\":2266:2269   */\n  0x00\n    /* \"#utility.yul\":2221:2294   */\n  swap1\n  jump\t// out\n    /* \"#utility.yul\":2300:2489   */\ntag_26:\n    /* \"#utility.yul\":2377:2409   */\n  tag_60\n  tag_25\n  jump\t// in\ntag_60:\n    /* \"#utility.yul\":2418:2483   */\n  tag_61\n    /* \"#utility.yul\":2476:2482   */\n  dup2\n    /* \"#utility.yul\":2468:2474   */\n  dup5\n    /* \"#utility.yul\":2462:2466   */\n  dup5\n    /* \"#utility.yul\":2418:2483   */\n  tag_24\n  jump\t// in\ntag_61:\n    /* \"#utility.yul\":2353:2489   */\n  pop\n    /* \"#utility.yul\":2300:2489   */\n  pop\n  pop\n  jump\t// out\n    /* \"#utility.yul\":2495:2681   */\ntag_27:\n    /* \"#utility.yul\":2555:2675   */\ntag_63:\n    /* \"#utility.yul\":2572:2575   */\n  dup2\n    /* \"#utility.yul\":2565:2570   */\n  dup2\n    /* \"#utility.yul\":2562:2576   */\n  lt\n    /* \"#utility.yul\":2555:2675   */\n  iszero\n  tag_65\n  jumpi\n    /* \"#utility.yul\":2626:2665   */\n  tag_66\n    /* \"#utility.yul\":2663:2664   */\n  0x00\n    /* \"#utility.yul\":2656:2661   */\n  dup3\n    /* \"#utility.yul\":2626:2665   */\n  tag_26\n  jump\t// in\ntag_66:\n    /* \"#utility.yul\":2599:2600   */\n  0x01\n    /* \"#utility.yul\":2592:2597   */\n  dup2\n    /* \"#utility.yul\":2588:2601   */\n  add\n    /* \"#utility.yul\":2579:2601   */\n  swap1\n  pop\n    /* \"#utility.yul\":2555:2675   */\n  jump(tag_63)\ntag_65:\n    /* \"#utility.yul\":2495:2681   */\n  pop\n  pop\n  jump\t// out\n    /* \"#utility.yul\":2687:3230   */\ntag_28:\n    /* \"#utility.yul\":2788:2790   */\n  0x1f\n    /* \"#utility.yul\":2783:2786   */\n  dup3\n    /* \"#utility.yul\":2780:2791   */\n  gt\n    /* \"#utility.yul\":2777:3223   */\n  iszero\n  tag_68\n  jumpi\n    /* \"#utility.yul\":2822:2860   */\n  tag_69\n    /* \"#utility.yul\":2854:2859   */\n  dup2\n    /* \"#utility.yul\":2822:2860   */\n  tag_16\n  jump\t// in\ntag_69:\n    /* \"#utility.yul\":2906:2935   */\n  tag_70\n    /* \"#utility.yul\":2924:2934   */\n  dup5\n    /* \"#utility.yul\":2906:2935   */\n  tag_17\n  jump\t// in\ntag_70:\n    /* \"#utility.yul\":2896:2904   */\n  dup2\n    /* \"#utility.yul\":2892:2936   */\n  add\n    /* \"#utility.yul\":3089:3091   */\n  0x20\n    /* \"#utility.yul\":3077:3087   */\n  dup6\n    /* \"#utility.yul\":3074:3092   */\n  lt\n    /* \"#utility.yul\":3071:3120   */\n  iszero\n  tag_71\n  jumpi\n    /* \"#utility.yul\":3110:3118   */\n  dup2\n    /* \"#utility.yul\":3095:3118   */\n  swap1\n  pop\n    /* \"#utility.yul\":3071:3120   */\ntag_71:\n    /* \"#utility.yul\":3133:3213   */\n  tag_72\n    /* \"#utility.yul\":3189:3211   */\n  tag_73\n    /* \"#utility.yul\":3207:3210   */\n  dup6\n    /* \"#utility.yul\":3189:3211   */\n  tag_17\n  jump\t// in\ntag_73:\n    /* \"#utility.yul\":3179:3187   */\n  dup4\n    /* \"#utility.yul\":3175:3212   */\n  add\n    /* \"#utility.yul\":3162:3173   */\n  dup3\n    /* \"#utility.yul\":3133:3213   */\n  tag_27\n  jump\t// in\ntag_72:\n    /* \"#utility.yul\":2792:3223   */\n  pop\n  pop\n    /* \"#utility.yul\":2777:3223   */\ntag_68:\n    /* \"#utility.yul\":2687:3230   */\n  pop\n  pop\n  pop\n  jump\t// out\n    /* \"#utility.yul\":3236:3353   */\ntag_29:\n    /* \"#utility.yul\":3290:3298   */\n  0x00\n    /* \"#utility.yul\":3340:3345   */\n  dup3\n    /* \"#utility.yul\":3334:3338   */\n  dup3\n    /* \"#utility.yul\":3330:3346   */\n  shr\n    /* \"#utility.yul\":3309:3346   */\n  swap1\n  pop\n    /* \"#utility.yul\":3236:3353   */\n  swap3\n  swap2\n  pop\n  pop\n  jump\t// out\n    /* \"#utility.yul\":3359:3528   */\ntag_30:\n    /* \"#utility.yul\":3403:3409   */\n  0x00\n    /* \"#utility.yul\":3436:3487   */\n  tag_76\n    /* \"#utility.yul\":3484:3485   */\n  0x00\n    /* \"#utility.yul\":3480:3486   */\n  not\n    /* \"#utility.yul\":3472:3477   */\n  dup5\n    /* \"#utility.yul\":3469:3470   */\n  0x08\n    /* \"#utility.yul\":3465:3478   */\n  mul\n    /* \"#utility.yul\":3436:3487   */\n  tag_29\n  jump\t// in\ntag_76:\n    /* \"#utility.yul\":3432:3488   */\n  not\n    /* \"#utility.yul\":3517:3521   */\n  dup1\n    /* \"#utility.yul\":3511:3515   */\n  dup4\n    /* \"#utility.yul\":3507:3522   */\n  and\n    /* \"#utility.yul\":3497:3522   */\n  swap2\n  pop\n    /* \"#utility.yul\":3410:3528   */\n  pop\n    /* \"#utility.yul\":3359:3528   */\n  swap3\n  swap2\n  pop\n  pop\n  jump\t// out\n    /* \"#utility.yul\":3533:3828   */\ntag_31:\n    /* \"#utility.yul\":3609:3613   */\n  0x00\n    /* \"#utility.yul\":3755:3784   */\n  tag_78\n    /* \"#utility.yul\":3780:3783   */\n  dup4\n    /* \"#utility.yul\":3774:3778   */\n  dup4\n    /* \"#utility.yul\":3755:3784   */\n  tag_30\n  jump\t// in\ntag_78:\n    /* \"#utility.yul\":3747:3784   */\n  swap2\n  pop\n    /* \"#utility.yul\":3817:3820   */\n  dup3\n    /* \"#utility.yul\":3814:3815   */\n  0x02\n    /* \"#utility.yul\":3810:3821   */\n  mul\n    /* \"#utility.yul\":3804:3808   */\n  dup3\n    /* \"#utility.yul\":3801:3822   */\n  or\n    /* \"#utility.yul\":3793:3822   */\n  swap1\n  pop\n    /* \"#utility.yul\":3533:3828   */\n  swap3\n  swap2\n  pop\n  pop\n  jump\t// out\n    /* \"#utility.yul\":3833:5228   */\ntag_2:\n    /* \"#utility.yul\":3950:3987   */\n  tag_80\n    /* \"#utility.yul\":3983:3986   */\n  dup3\n    /* \"#utility.yul\":3950:3987   */\n  tag_12\n  jump\t// in\ntag_80:\n    /* \"#utility.yul\":4052:4070   */\n  0xffffffffffffffff\n    /* \"#utility.yul\":4044:4050   */\n  dup2\n    /* \"#utility.yul\":4041:4071   */\n  gt\n    /* \"#utility.yul\":4038:4094   */\n  iszero\n  tag_81\n  jumpi\n    /* \"#utility.yul\":4074:4092   */\n  tag_82\n  tag_13\n  jump\t// in\ntag_82:\n    /* \"#utility.yul\":4038:4094   */\ntag_81:\n    /* \"#utility.yul\":4118:4156   */\n  tag_83\n    /* \"#utility.yul\":4150:4154   */\n  dup3\n    /* \"#utility.yul\":4144:4155   */\n  sload\n    /* \"#utility.yul\":4118:4156   */\n  tag_15\n  jump\t// in\ntag_83:\n    /* \"#utility.yul\":4203:4270   */\n  tag_84\n    /* \"#utility.yul\":4263:4269   */\n  dup3\n    /* \"#utility.yul\":4255:4261   */\n  dup3\n    /* \"#utility.yul\":4249:4253   */\n  dup6\n    /* \"#utility.yul\":4203:4270   */\n  tag_28\n  jump\t// in\ntag_84:\n    /* \"#utility.yul\":4297:4298   */\n  0x00\n    /* \"#utility.yul\":4321:4325   */\n  0x20\n    /* \"#utility.yul\":4308:4325   */\n  swap1\n  pop\n    /* \"#utility.yul\":4353:4355   */\n  0x1f\n    /* \"#utility.yul\":4345:4351   */\n  dup4\n    /* \"#utility.yul\":4342:4356   */\n  gt\n    /* \"#utility.yul\":4370:4371   */\n  0x01\n    /* \"#utility.yul\":4365:4983   */\n  dup2\n  eq\n  tag_86\n  jumpi\n    /* \"#utility.yul\":5027:5028   */\n  0x00\n    /* \"#utility.yul\":5044:5050   */\n  dup5\n    /* \"#utility.yul\":5041:5118   */\n  iszero\n  tag_87\n  jumpi\n    /* \"#utility.yul\":5093:5102   */\n  dup3\n    /* \"#utility.yul\":5088:5091   */\n  dup8\n    /* \"#utility.yul\":5084:5103   */\n  add\n    /* \"#utility.yul\":5078:5104   */\n  mload\n    /* \"#utility.yul\":5069:5104   */\n  swap1\n  pop\n    /* \"#utility.yul\":5041:5118   */\ntag_87:\n    /* \"#utility.yul\":5144:5211   */\n  tag_88\n    /* \"#utility.yul\":5204:5210   */\n  dup6\n    /* \"#utility.yul\":5197:5202   */\n  dup3\n    /* \"#utility.yul\":5144:5211   */\n  tag_31\n  jump\t// in\ntag_88:\n    /* \"#utility.yul\":5138:5142   */\n  dup7\n    /* \"#utility.yul\":5131:5212   */\n  sstore\n    /* \"#utility.yul\":5000:5222   */\n  pop\n    /* \"#utility.yul\":4335:5222   */\n  jump(tag_85)\n    /* \"#utility.yul\":4365:4983   */\ntag_86:\n    /* \"#utility.yul\":4417:4421   */\n  0x1f\n    /* \"#utility.yul\":4413:4422   */\n  not\n    /* \"#utility.yul\":4405:4411   */\n  dup5\n    /* \"#utility.yul\":4401:4423   */\n  and\n    /* \"#utility.yul\":4451:4488   */\n  tag_89\n    /* \"#utility.yul\":4483:4487   */\n  dup7\n    /* \"#utility.yul\":4451:4488   */\n  tag_16\n  jump\t// in\ntag_89:\n    /* \"#utility.yul\":4510:4511   */\n  0x00\n    /* \"#utility.yul\":4524:4732   */\ntag_90:\n    /* \"#utility.yul\":4538:4545   */\n  dup3\n    /* \"#utility.yul\":4535:4536   */\n  dup2\n    /* \"#utility.yul\":4532:4546   */\n  lt\n    /* \"#utility.yul\":4524:4732   */\n  iszero\n  tag_92\n  jumpi\n    /* \"#utility.yul\":4617:4626   */\n  dup5\n    /* \"#utility.yul\":4612:4615   */\n  dup10\n    /* \"#utility.yul\":4608:4627   */\n  add\n    /* \"#utility.yul\":4602:4628   */\n  mload\n    /* \"#utility.yul\":4594:4600   */\n  dup3\n    /* \"#utility.yul\":4587:4629   */\n  sstore\n    /* \"#utility.yul\":4668:4669   */\n  0x01\n    /* \"#utility.yul\":4660:4666   */\n  dup3\n    /* \"#utility.yul\":4656:4670   */\n  add\n    /* \"#utility.yul\":4646:4670   */\n  swap2\n  pop\n    /* \"#utility.yul\":4715:4717   */\n  0x20\n    /* \"#utility.yul\":4704:4713   */\n  dup6\n    /* \"#utility.yul\":4700:4718   */\n  add\n    /* \"#utility.yul\":4687:4718   */\n  swap5\n  pop\n    /* \"#utility.yul\":4561:4565   */\n  0x20\n    /* \"#utility.yul\":4558:4559   */\n  dup2\n    /* \"#utility.yul\":4554:4566   */\n  add\n    /* \"#utility.yul\":4549:4566   */\n  swap1\n  pop\n    /* \"#utility.yul\":4524:4732   */\n  jump(tag_90)\ntag_92:\n    /* \"#utility.yul\":4760:4766   */\n  dup7\n    /* \"#utility.yul\":4751:4758   */\n  dup4\n    /* \"#utility.yul\":4748:4767   */\n  lt\n    /* \"#utility.yul\":4745:4924   */\n  iszero\n  tag_93\n  jumpi\n    /* \"#utility.yul\":4818:4827   */\n  dup5\n    /* \"#utility.yul\":4813:4816   */\n  dup10\n    /* \"#utility.yul\":4809:4828   */\n  add\n    /* \"#utility.yul\":4803:4829   */\n  mload\n    /* \"#utility.yul\":4861:4909   */\n  tag_94\n    /* \"#utility.yul\":4903:4907   */\n  0x1f\n    /* \"#utility.yul\":4895:4901   */\n  dup10\n    /* \"#utility.yul\":4891:4908   */\n  and\n    /* \"#utility.yul\":4880:4889   */\n  dup3\n    /* \"#utility.yul\":4861:4909   */\n  tag_30\n  jump\t// in\ntag_94:\n    /* \"#utility.yul\":4853:4859   */\n  dup4\n    /* \"#utility.yul\":4846:4910   */\n  sstore\n    /* \"#utility.yul\":4768:4924   */\n  pop\n    /* \"#utility.yul\":4745:4924   */\ntag_93:\n    /* \"#utility.yul\":4970:4971   */\n  0x01\n    /* \"#utility.yul\":4966:4967   */\n  0x02\n    /* \"#utility.yul\":4958:4964   */\n  dup9\n    /* \"#utility.yul\":4954:4968   */\n  mul\n    /* \"#utility.yul\":4950:4972   */\n  add\n    /* \"#utility.yul\":4944:4948   */\n  dup9\n    /* \"#utility.yul\":4937:4973   */\n  sstore\n    /* \"#utility.yul\":4372:4983   */\n  pop\n  pop\n  pop\n    /* \"#utility.yul\":4335:5222   */\ntag_85:\n  pop\n    /* \"#utility.yul\":3925:5228   */\n  pop\n  pop\n  pop\n    /* \"#utility.yul\":3833:5228   */\n  pop\n  pop\n  jump\t// out\n    /* \"#utility.yul\":5234:5414   */\ntag_32:\n    /* \"#utility.yul\":5282:5359   */\n  0x4e487b7100000000000000000000000000000000000000000000000000000000\n    /* \"#utility.yul\":5279:5280   */\n  0x00\n    /* \"#utility.yul\":5272:5360   */\n  mstore\n    /* \"#utility.yul\":5379:5383   */\n  0x11\n    /* \"#utility.yul\":5376:5377   */\n  0x04\n    /* \"#utility.yul\":5369:5384   */\n  mstore\n    /* \"#utility.yul\":5403:5407   */\n  0x24\n    /* \"#utility.yul\":5400:5401   */\n  0x00\n    /* \"#utility.yul\":5393:5408   */\n  revert\n    /* \"#utility.yul\":5420:5611   */\ntag_6:\n    /* \"#utility.yul\":5460:5463   */\n  0x00\n    /* \"#utility.yul\":5479:5499   */\n  tag_97\n    /* \"#utility.yul\":5497:5498   */\n  dup3\n    /* \"#utility.yul\":5479:5499   */\n  tag_20\n  jump\t// in\ntag_97:\n    /* \"#utility.yul\":5474:5499   */\n  swap2\n  pop\n    /* \"#utility.yul\":5513:5533   */\n  tag_98\n    /* \"#utility.yul\":5531:5532   */\n  dup4\n    /* \"#utility.yul\":5513:5533   */\n  tag_20\n  jump\t// in\ntag_98:\n    /* \"#utility.yul\":5508:5533   */\n  swap3\n  pop\n    /* \"#utility.yul\":5556:5557   */\n  dup3\n    /* \"#utility.yul\":5553:5554   */\n  dup3\n    /* \"#utility.yul\":5549:5558   */\n  add\n    /* \"#utility.yul\":5542:5558   */\n  swap1\n  pop\n    /* \"#utility.yul\":5577:5580   */\n  dup1\n    /* \"#utility.yul\":5574:5575   */\n  dup3\n    /* \"#utility.yul\":5571:5581   */\n  gt\n    /* \"#utility.yul\":5568:5604   */\n  iszero\n  tag_99\n  jumpi\n    /* \"#utility.yul\":5584:5602   */\n  tag_100\n  tag_32\n  jump\t// in\ntag_100:\n    /* \"#utility.yul\":5568:5604   */\ntag_99:\n    /* \"#utility.yul\":5420:5611   */\n  swap3\n  swap2\n  pop\n  pop\n  jump\t// out\n    /* \"#utility.yul\":5617:5797   */\ntag_9:\n    /* \"#utility.yul\":5665:5742   */\n  0x4e487b7100000000000000000000000000000000000000000000000000000000\n    /* \"#utility.yul\":5662:5663   */\n  0x00\n    /* \"#utility.yul\":5655:5743   */\n  mstore\n    /* \"#utility.yul\":5762:5766   */\n  0x32\n    /* \"#utility.yul\":5759:5760   */\n  0x04\n    /* \"#utility.yul\":5752:5767   */\n  mstore\n    /* \"#utility.yul\":5786:5790   */\n  0x24\n    /* \"#utility.yul\":5783:5784   */\n  0x00\n    /* \"#utility.yul\":5776:5791   */\n  revert\n    /* \"HelloWeb3.sol\":59:976  contract HelloWeb3{... */\ntag_11:\n  dataSize(sub_0)\n  dup1\n  dataOffset(sub_0)\n  0x00\n  codecopy\n  0x00\n  return\nstop\n\nsub_0: assembly {\n        /* \"HelloWeb3.sol\":59:976  contract HelloWeb3{... */\n      mstore(0x40, 0x80)\n      callvalue\n      dup1\n      iszero\n      tag_1\n      jumpi\n      0x00\n      dup1\n      revert\n    tag_1:\n      pop\n      jumpi(tag_2, lt(calldatasize, 0x04))\n      shr(0xe0, calldataload(0x00))\n      dup1\n      0x9b267f09\n      gt\n      tag_22\n      jumpi\n      dup1\n      0xaeb6f292\n      gt\n      tag_23\n      jumpi\n      dup1\n      0xaeb6f292\n      eq\n      tag_17\n      jumpi\n      dup1\n      0xaf45869e\n      eq\n      tag_18\n      jumpi\n      dup1\n      0xb69ef8a8\n      eq\n      tag_19\n      jumpi\n      dup1\n      0xe37c6c82\n      eq\n      tag_20\n      jumpi\n      dup1\n      0xf9bd55cc\n      eq\n      tag_21\n      jumpi\n      jump(tag_2)\n    tag_23:\n      dup1\n      0x9b267f09\n      eq\n      tag_12\n      jumpi\n      dup1\n      0x9e6ba9c2\n      eq\n      tag_13\n      jumpi\n      dup1\n      0xa2e7fe8a\n      eq\n      tag_14\n      jumpi\n      dup1\n      0xaa994926\n      eq\n      tag_15\n      jumpi\n      dup1\n      0xac729403\n      eq\n      tag_16\n      jumpi\n      jump(tag_2)\n    tag_22:\n      dup1\n      0x2b36a762\n      gt\n      tag_24\n      jumpi\n      dup1\n      0x2b36a762\n      eq\n      tag_7\n      jumpi\n      dup1\n      0x3f346102\n      eq\n      tag_8\n      jumpi\n      dup1\n      0x6b1d2c4e\n      eq\n      tag_9\n      jumpi\n      dup1\n      0x6e8d0c9e\n      eq\n      tag_10\n      jumpi\n      dup1\n      0x924b3d21\n      eq\n      tag_11\n      jumpi\n      jump(tag_2)\n    tag_24:\n      dup1\n      0x18bad217\n      eq\n      tag_3\n      jumpi\n      dup1\n      0x19bff7df\n      eq\n      tag_4\n      jumpi\n      dup1\n      0x1db19d8c\n      eq\n      tag_5\n      jumpi\n      dup1\n      0x2543135b\n      eq\n      tag_6\n      jumpi\n    tag_2:\n      0x00\n      dup1\n      revert\n        /* \"HelloWeb3.sol\":690:758  address public _address = 0x5B38Da6a701c568545dCfcB03FcB875f56beddC4 */\n    tag_3:\n      tag_25\n      tag_26\n      jump\t// in\n    tag_25:\n      mload(0x40)\n      tag_27\n      swap2\n      swap1\n      tag_28\n      jump\t// in\n    tag_27:\n      mload(0x40)\n      dup1\n      swap2\n      sub\n      swap1\n      return\n        /* \"HelloWeb3.sol\":582:613  uint256 public _number3 = 7 % 2 */\n    tag_4:\n      tag_29\n      tag_30\n      jump\t// in\n    tag_29:\n      mload(0x40)\n      tag_31\n      swap2\n      swap1\n      tag_32\n      jump\t// in\n    tag_31:\n      mload(0x40)\n      dup1\n      swap2\n      sub\n      swap1\n      return\n        /* \"HelloWeb3.sol\":345:381  bool public _bool5 = _bool != _bool1 */\n    tag_5:\n      tag_33\n      tag_34\n      jump\t// in\n    tag_33:\n      mload(0x40)\n      tag_35\n      swap2\n      swap1\n      tag_36\n      jump\t// in\n    tag_35:\n      mload(0x40)\n      dup1\n      swap2\n      sub\n      swap1\n      return\n        /* \"HelloWeb3.sol\":433:454  uint public _uint = 1 */\n    tag_6:\n      tag_37\n      tag_38\n      jump\t// in\n    tag_37:\n      mload(0x40)\n      tag_39\n      swap2\n      swap1\n      tag_32\n      jump\t// in\n    tag_39:\n      mload(0x40)\n      dup1\n      swap2\n      sub\n      swap1\n      return\n        /* \"HelloWeb3.sol\":302:338  bool public _bool4 = _bool == _bool1 */\n    tag_7:\n      tag_40\n      tag_41\n      jump\t// in\n    tag_40:\n      mload(0x40)\n      tag_42\n      swap2\n      swap1\n      tag_36\n      jump\t// in\n    tag_42:\n      mload(0x40)\n      dup1\n      swap2\n      sub\n      swap1\n      return\n        /* \"HelloWeb3.sol\":888:927  bytes32 public _byte32 = \"MiniSolidity\" */\n    tag_8:\n      tag_43\n      tag_44\n      jump\t// in\n    tag_43:\n      mload(0x40)\n      tag_45\n      swap2\n      swap1\n      tag_46\n      jump\t// in\n    tag_45:\n      mload(0x40)\n      dup1\n      swap2\n      sub\n      swap1\n      return\n        /* \"HelloWeb3.sol\":545:575  uint256 public _number2 = 2**2 */\n    tag_9:\n      tag_47\n      tag_48\n      jump\t// in\n    tag_47:\n      mload(0x40)\n      tag_49\n      swap2\n      swap1\n      tag_32\n      jump\t// in\n    tag_49:\n      mload(0x40)\n      dup1\n      swap2\n      sub\n      swap1\n      return\n        /* \"HelloWeb3.sol\":501:538  uint256 public _number1 = _number + 1 */\n    tag_10:\n      tag_50\n      tag_51\n      jump\t// in\n    tag_50:\n      mload(0x40)\n      tag_52\n      swap2\n      swap1\n      tag_32\n      jump\t// in\n    tag_52:\n      mload(0x40)\n      dup1\n      swap2\n      sub\n      swap1\n      return\n        /* \"HelloWeb3.sol\":182:209  bool public _bool1 = !_bool */\n    tag_11:\n      tag_53\n      tag_54\n      jump\t// in\n    tag_53:\n      mload(0x40)\n      tag_55\n      swap2\n      swap1\n      tag_36\n      jump\t// in\n    tag_55:\n      mload(0x40)\n      dup1\n      swap2\n      sub\n      swap1\n      return\n        /* \"HelloWeb3.sol\":84:121  string public _string = \"Hello Web3!\" */\n    tag_12:\n      tag_56\n      tag_57\n      jump\t// in\n    tag_56:\n      mload(0x40)\n      tag_58\n      swap2\n      swap1\n      tag_59\n      jump\t// in\n    tag_58:\n      mload(0x40)\n      dup1\n      swap2\n      sub\n      swap1\n      return\n        /* \"HelloWeb3.sol\":151:175  bool public _bool = true */\n    tag_13:\n      tag_60\n      tag_61\n      jump\t// in\n    tag_60:\n      mload(0x40)\n      tag_62\n      swap2\n      swap1\n      tag_36\n      jump\t// in\n    tag_62:\n      mload(0x40)\n      dup1\n      swap2\n      sub\n      swap1\n      return\n        /* \"HelloWeb3.sol\":216:252  bool public _bool2 = _bool && _bool1 */\n    tag_14:\n      tag_63\n      tag_64\n      jump\t// in\n    tag_63:\n      mload(0x40)\n      tag_65\n      swap2\n      swap1\n      tag_36\n      jump\t// in\n    tag_65:\n      mload(0x40)\n      dup1\n      swap2\n      sub\n      swap1\n      return\n        /* \"HelloWeb3.sol\":259:295  bool public _bool3 = _bool || _bool1 */\n    tag_15:\n      tag_66\n      tag_67\n      jump\t// in\n    tag_66:\n      mload(0x40)\n      tag_68\n      swap2\n      swap1\n      tag_36\n      jump\t// in\n    tag_68:\n      mload(0x40)\n      dup1\n      swap2\n      sub\n      swap1\n      return\n        /* \"HelloWeb3.sol\":765:817  address payable public _address1 = payable(_address) */\n    tag_16:\n      tag_69\n      tag_70\n      jump\t// in\n    tag_69:\n      mload(0x40)\n      tag_71\n      swap2\n      swap1\n      tag_72\n      jump\t// in\n    tag_71:\n      mload(0x40)\n      dup1\n      swap2\n      sub\n      swap1\n      return\n        /* \"HelloWeb3.sol\":934:966  bytes1 public _byte = _byte32[0] */\n    tag_17:\n      tag_73\n      tag_74\n      jump\t// in\n    tag_73:\n      mload(0x40)\n      tag_75\n      swap2\n      swap1\n      tag_76\n      jump\t// in\n    tag_75:\n      mload(0x40)\n      dup1\n      swap2\n      sub\n      swap1\n      return\n        /* \"HelloWeb3.sol\":406:426  int public _int = -1 */\n    tag_18:\n      tag_77\n      tag_78\n      jump\t// in\n    tag_77:\n      mload(0x40)\n      tag_79\n      swap2\n      swap1\n      tag_80\n      jump\t// in\n    tag_79:\n      mload(0x40)\n      dup1\n      swap2\n      sub\n      swap1\n      return\n        /* \"HelloWeb3.sol\":824:866  uint256 public balance = _address1.balance */\n    tag_19:\n      tag_81\n      tag_82\n      jump\t// in\n    tag_81:\n      mload(0x40)\n      tag_83\n      swap2\n      swap1\n      tag_32\n      jump\t// in\n    tag_83:\n      mload(0x40)\n      dup1\n      swap2\n      sub\n      swap1\n      return\n        /* \"HelloWeb3.sol\":620:665  bool public _numberbool = _number2 > _number3 */\n    tag_20:\n      tag_84\n      tag_85\n      jump\t// in\n    tag_84:\n      mload(0x40)\n      tag_86\n      swap2\n      swap1\n      tag_36\n      jump\t// in\n    tag_86:\n      mload(0x40)\n      dup1\n      swap2\n      sub\n      swap1\n      return\n        /* \"HelloWeb3.sol\":461:494  uint256 public _number = 20220330 */\n    tag_21:\n      tag_87\n      tag_88\n      jump\t// in\n    tag_87:\n      mload(0x40)\n      tag_89\n      swap2\n      swap1\n      tag_32\n      jump\t// in\n    tag_89:\n      mload(0x40)\n      dup1\n      swap2\n      sub\n      swap1\n      return\n        /* \"HelloWeb3.sol\":690:758  address public _address = 0x5B38Da6a701c568545dCfcB03FcB875f56beddC4 */\n    tag_26:\n      0x08\n      0x01\n      swap1\n      sload\n      swap1\n      0x0100\n      exp\n      swap1\n      div\n      0xffffffffffffffffffffffffffffffffffffffff\n      and\n      dup2\n      jump\t// out\n        /* \"HelloWeb3.sol\":582:613  uint256 public _number3 = 7 % 2 */\n    tag_30:\n      sload(0x07)\n      dup2\n      jump\t// out\n        /* \"HelloWeb3.sol\":345:381  bool public _bool5 = _bool != _bool1 */\n    tag_34:\n      0x01\n      0x05\n      swap1\n      sload\n      swap1\n      0x0100\n      exp\n      swap1\n      div\n      0xff\n      and\n      dup2\n      jump\t// out\n        /* \"HelloWeb3.sol\":433:454  uint public _uint = 1 */\n    tag_38:\n      sload(0x03)\n      dup2\n      jump\t// out\n        /* \"HelloWeb3.sol\":302:338  bool public _bool4 = _bool == _bool1 */\n    tag_41:\n      0x01\n      0x04\n      swap1\n      sload\n      swap1\n      0x0100\n      exp\n      swap1\n      div\n      0xff\n      and\n      dup2\n      jump\t// out\n        /* \"HelloWeb3.sol\":888:927  bytes32 public _byte32 = \"MiniSolidity\" */\n    tag_44:\n      sload(0x0b)\n      dup2\n      jump\t// out\n        /* \"HelloWeb3.sol\":545:575  uint256 public _number2 = 2**2 */\n    tag_48:\n      sload(0x06)\n      dup2\n      jump\t// out\n        /* \"HelloWeb3.sol\":501:538  uint256 public _number1 = _number + 1 */\n    tag_51:\n      sload(0x05)\n      dup2\n      jump\t// out\n        /* \"HelloWeb3.sol\":182:209  bool public _bool1 = !_bool */\n    tag_54:\n      0x01\n      dup1\n      sload\n      swap1\n      0x0100\n      exp\n      swap1\n      div\n      0xff\n      and\n      dup2\n      jump\t// out\n        /* \"HelloWeb3.sol\":84:121  string public _string = \"Hello Web3!\" */\n    tag_57:\n      0x00\n      dup1\n      sload\n      tag_90\n      swap1\n      tag_91\n      jump\t// in\n    tag_90:\n      dup1\n      0x1f\n      add\n      0x20\n      dup1\n      swap2\n      div\n      mul\n      0x20\n      add\n      mload(0x40)\n      swap1\n      dup2\n      add\n      0x40\n      mstore\n      dup1\n      swap3\n      swap2\n      swap1\n      dup2\n      dup2\n      mstore\n      0x20\n      add\n      dup3\n      dup1\n      sload\n      tag_92\n      swap1\n      tag_91\n      jump\t// in\n    tag_92:\n      dup1\n      iszero\n      tag_93\n      jumpi\n      dup1\n      0x1f\n      lt\n      tag_94\n      jumpi\n      0x0100\n      dup1\n      dup4\n      sload\n      div\n      mul\n      dup4\n      mstore\n      swap2\n      0x20\n      add\n      swap2\n      jump(tag_93)\n    tag_94:\n      dup3\n      add\n      swap2\n      swap1\n      0x00\n      mstore\n      keccak256(0x00, 0x20)\n      swap1\n    tag_95:\n      dup2\n      sload\n      dup2\n      mstore\n      swap1\n      0x01\n      add\n      swap1\n      0x20\n      add\n      dup1\n      dup4\n      gt\n      tag_95\n      jumpi\n      dup3\n      swap1\n      sub\n      0x1f\n      and\n      dup3\n      add\n      swap2\n    tag_93:\n      pop\n      pop\n      pop\n      pop\n      pop\n      dup2\n      jump\t// out\n        /* \"HelloWeb3.sol\":151:175  bool public _bool = true */\n    tag_61:\n      0x01\n      0x00\n      swap1\n      sload\n      swap1\n      0x0100\n      exp\n      swap1\n      div\n      0xff\n      and\n      dup2\n      jump\t// out\n        /* \"HelloWeb3.sol\":216:252  bool public _bool2 = _bool && _bool1 */\n    tag_64:\n      0x01\n      0x02\n      swap1\n      sload\n      swap1\n      0x0100\n      exp\n      swap1\n      div\n      0xff\n      and\n      dup2\n      jump\t// out\n        /* \"HelloWeb3.sol\":259:295  bool public _bool3 = _bool || _bool1 */\n    tag_67:\n      0x01\n      0x03\n      swap1\n      sload\n      swap1\n      0x0100\n      exp\n      swap1\n      div\n      0xff\n      and\n      dup2\n      jump\t// out\n        /* \"HelloWeb3.sol\":765:817  address payable public _address1 = payable(_address) */\n    tag_70:\n      0x09\n      0x00\n      swap1\n      sload\n      swap1\n      0x0100\n      exp\n      swap1\n      div\n      0xffffffffffffffffffffffffffffffffffffffff\n      and\n      dup2\n      jump\t// out\n        /* \"HelloWeb3.sol\":934:966  bytes1 public _byte = _byte32[0] */\n    tag_74:\n      0x0c\n      0x00\n      swap1\n      sload\n      swap1\n      0x0100\n      exp\n      swap1\n      div\n      0xf8\n      shl\n      dup2\n      jump\t// out\n        /* \"HelloWeb3.sol\":406:426  int public _int = -1 */\n    tag_78:\n      sload(0x02)\n      dup2\n      jump\t// out\n        /* \"HelloWeb3.sol\":824:866  uint256 public balance = _address1.balance */\n    tag_82:\n      sload(0x0a)\n      dup2\n      jump\t// out\n        /* \"HelloWeb3.sol\":620:665  bool public _numberbool = _number2 > _number3 */\n    tag_85:\n      0x08\n      0x00\n      swap1\n      sload\n      swap1\n      0x0100\n      exp\n      swap1\n      div\n      0xff\n      and\n      dup2\n      jump\t// out\n        /* \"HelloWeb3.sol\":461:494  uint256 public _number = 20220330 */\n    tag_88:\n      sload(0x04)\n      dup2\n      jump\t// out\n        /* \"#utility.yul\":7:133   */\n    tag_96:\n        /* \"#utility.yul\":44:51   */\n      0x00\n        /* \"#utility.yul\":84:126   */\n      0xffffffffffffffffffffffffffffffffffffffff\n        /* \"#utility.yul\":77:82   */\n      dup3\n        /* \"#utility.yul\":73:127   */\n      and\n        /* \"#utility.yul\":62:127   */\n      swap1\n      pop\n        /* \"#utility.yul\":7:133   */\n      swap2\n      swap1\n      pop\n      jump\t// out\n        /* \"#utility.yul\":139:235   */\n    tag_97:\n        /* \"#utility.yul\":176:183   */\n      0x00\n        /* \"#utility.yul\":205:229   */\n      tag_120\n        /* \"#utility.yul\":223:228   */\n      dup3\n        /* \"#utility.yul\":205:229   */\n      tag_96\n      jump\t// in\n    tag_120:\n        /* \"#utility.yul\":194:229   */\n      swap1\n      pop\n        /* \"#utility.yul\":139:235   */\n      swap2\n      swap1\n      pop\n      jump\t// out\n        /* \"#utility.yul\":241:359   */\n    tag_98:\n        /* \"#utility.yul\":328:352   */\n      tag_122\n        /* \"#utility.yul\":346:351   */\n      dup2\n        /* \"#utility.yul\":328:352   */\n      tag_97\n      jump\t// in\n    tag_122:\n        /* \"#utility.yul\":323:326   */\n      dup3\n        /* \"#utility.yul\":316:353   */\n      mstore\n        /* \"#utility.yul\":241:359   */\n      pop\n      pop\n      jump\t// out\n        /* \"#utility.yul\":365:587   */\n    tag_28:\n        /* \"#utility.yul\":458:462   */\n      0x00\n        /* \"#utility.yul\":496:498   */\n      0x20\n        /* \"#utility.yul\":485:494   */\n      dup3\n        /* \"#utility.yul\":481:499   */\n      add\n        /* \"#utility.yul\":473:499   */\n      swap1\n      pop\n        /* \"#utility.yul\":509:580   */\n      tag_124\n        /* \"#utility.yul\":577:578   */\n      0x00\n        /* \"#utility.yul\":566:575   */\n      dup4\n        /* \"#utility.yul\":562:579   */\n      add\n        /* \"#utility.yul\":553:559   */\n      dup5\n        /* \"#utility.yul\":509:580   */\n      tag_98\n      jump\t// in\n    tag_124:\n        /* \"#utility.yul\":365:587   */\n      swap3\n      swap2\n      pop\n      pop\n      jump\t// out\n        /* \"#utility.yul\":593:670   */\n    tag_99:\n        /* \"#utility.yul\":630:637   */\n      0x00\n        /* \"#utility.yul\":659:664   */\n      dup2\n        /* \"#utility.yul\":648:664   */\n      swap1\n      pop\n        /* \"#utility.yul\":593:670   */\n      swap2\n      swap1\n      pop\n      jump\t// out\n        /* \"#utility.yul\":676:794   */\n    tag_100:\n        /* \"#utility.yul\":763:787   */\n      tag_127\n        /* \"#utility.yul\":781:786   */\n      dup2\n        /* \"#utility.yul\":763:787   */\n      tag_99\n      jump\t// in\n    tag_127:\n        /* \"#utility.yul\":758:761   */\n      dup3\n        /* \"#utility.yul\":751:788   */\n      mstore\n        /* \"#utility.yul\":676:794   */\n      pop\n      pop\n      jump\t// out\n        /* \"#utility.yul\":800:1022   */\n    tag_32:\n        /* \"#utility.yul\":893:897   */\n      0x00\n        /* \"#utility.yul\":931:933   */\n      0x20\n        /* \"#utility.yul\":920:929   */\n      dup3\n        /* \"#utility.yul\":916:934   */\n      add\n        /* \"#utility.yul\":908:934   */\n      swap1\n      pop\n        /* \"#utility.yul\":944:1015   */\n      tag_129\n        /* \"#utility.yul\":1012:1013   */\n      0x00\n        /* \"#utility.yul\":1001:1010   */\n      dup4\n        /* \"#utility.yul\":997:1014   */\n      add\n        /* \"#utility.yul\":988:994   */\n      dup5\n        /* \"#utility.yul\":944:1015   */\n      tag_100\n      jump\t// in\n    tag_129:\n        /* \"#utility.yul\":800:1022   */\n      swap3\n      swap2\n      pop\n      pop\n      jump\t// out\n        /* \"#utility.yul\":1028:1118   */\n    tag_101:\n        /* \"#utility.yul\":1062:1069   */\n      0x00\n        /* \"#utility.yul\":1105:1110   */\n      dup2\n        /* \"#utility.yul\":1098:1111   */\n      iszero\n        /* \"#utility.yul\":1091:1112   */\n      iszero\n        /* \"#utility.yul\":1080:1112   */\n      swap1\n      pop\n        /* \"#utility.yul\":1028:1118   */\n      swap2\n      swap1\n      pop\n      jump\t// out\n        /* \"#utility.yul\":1124:1233   */\n    tag_102:\n        /* \"#utility.yul\":1205:1226   */\n      tag_132\n        /* \"#utility.yul\":1220:1225   */\n      dup2\n        /* \"#utility.yul\":1205:1226   */\n      tag_101\n      jump\t// in\n    tag_132:\n        /* \"#utility.yul\":1200:1203   */\n      dup3\n        /* \"#utility.yul\":1193:1227   */\n      mstore\n        /* \"#utility.yul\":1124:1233   */\n      pop\n      pop\n      jump\t// out\n        /* \"#utility.yul\":1239:1449   */\n    tag_36:\n        /* \"#utility.yul\":1326:1330   */\n      0x00\n        /* \"#utility.yul\":1364:1366   */\n      0x20\n        /* \"#utility.yul\":1353:1362   */\n      dup3\n        /* \"#utility.yul\":1349:1367   */\n      add\n        /* \"#utility.yul\":1341:1367   */\n      swap1\n      pop\n        /* \"#utility.yul\":1377:1442   */\n      tag_134\n        /* \"#utility.yul\":1439:1440   */\n      0x00\n        /* \"#utility.yul\":1428:1437   */\n      dup4\n        /* \"#utility.yul\":1424:1441   */\n      add\n        /* \"#utility.yul\":1415:1421   */\n      dup5\n        /* \"#utility.yul\":1377:1442   */\n      tag_102\n      jump\t// in\n    tag_134:\n        /* \"#utility.yul\":1239:1449   */\n      swap3\n      swap2\n      pop\n      pop\n      jump\t// out\n        /* \"#utility.yul\":1455:1532   */\n    tag_103:\n        /* \"#utility.yul\":1492:1499   */\n      0x00\n        /* \"#utility.yul\":1521:1526   */\n      dup2\n        /* \"#utility.yul\":1510:1526   */\n      swap1\n      pop\n        /* \"#utility.yul\":1455:1532   */\n      swap2\n      swap1\n      pop\n      jump\t// out\n        /* \"#utility.yul\":1538:1656   */\n    tag_104:\n        /* \"#utility.yul\":1625:1649   */\n      tag_137\n        /* \"#utility.yul\":1643:1648   */\n      dup2\n        /* \"#utility.yul\":1625:1649   */\n      tag_103\n      jump\t// in\n    tag_137:\n        /* \"#utility.yul\":1620:1623   */\n      dup3\n        /* \"#utility.yul\":1613:1650   */\n      mstore\n        /* \"#utility.yul\":1538:1656   */\n      pop\n      pop\n      jump\t// out\n        /* \"#utility.yul\":1662:1884   */\n    tag_46:\n        /* \"#utility.yul\":1755:1759   */\n      0x00\n        /* \"#utility.yul\":1793:1795   */\n      0x20\n        /* \"#utility.yul\":1782:1791   */\n      dup3\n        /* \"#utility.yul\":1778:1796   */\n      add\n        /* \"#utility.yul\":1770:1796   */\n      swap1\n      pop\n        /* \"#utility.yul\":1806:1877   */\n      tag_139\n        /* \"#utility.yul\":1874:1875   */\n      0x00\n        /* \"#utility.yul\":1863:1872   */\n      dup4\n        /* \"#utility.yul\":1859:1876   */\n      add\n        /* \"#utility.yul\":1850:1856   */\n      dup5\n        /* \"#utility.yul\":1806:1877   */\n      tag_104\n      jump\t// in\n    tag_139:\n        /* \"#utility.yul\":1662:1884   */\n      swap3\n      swap2\n      pop\n      pop\n      jump\t// out\n        /* \"#utility.yul\":1890:1989   */\n    tag_105:\n        /* \"#utility.yul\":1942:1948   */\n      0x00\n        /* \"#utility.yul\":1976:1981   */\n      dup2\n        /* \"#utility.yul\":1970:1982   */\n      mload\n        /* \"#utility.yul\":1960:1982   */\n      swap1\n      pop\n        /* \"#utility.yul\":1890:1989   */\n      swap2\n      swap1\n      pop\n      jump\t// out\n        /* \"#utility.yul\":1995:2164   */\n    tag_106:\n        /* \"#utility.yul\":2079:2090   */\n      0x00\n        /* \"#utility.yul\":2113:2119   */\n      dup3\n        /* \"#utility.yul\":2108:2111   */\n      dup3\n        /* \"#utility.yul\":2101:2120   */\n      mstore\n        /* \"#utility.yul\":2153:2157   */\n      0x20\n        /* \"#utility.yul\":2148:2151   */\n      dup3\n        /* \"#utility.yul\":2144:2158   */\n      add\n        /* \"#utility.yul\":2129:2158   */\n      swap1\n      pop\n        /* \"#utility.yul\":1995:2164   */\n      swap3\n      swap2\n      pop\n      pop\n      jump\t// out\n        /* \"#utility.yul\":2170:2416   */\n    tag_107:\n        /* \"#utility.yul\":2251:2252   */\n      0x00\n        /* \"#utility.yul\":2261:2374   */\n    tag_143:\n        /* \"#utility.yul\":2275:2281   */\n      dup4\n        /* \"#utility.yul\":2272:2273   */\n      dup2\n        /* \"#utility.yul\":2269:2282   */\n      lt\n        /* \"#utility.yul\":2261:2374   */\n      iszero\n      tag_145\n      jumpi\n        /* \"#utility.yul\":2360:2361   */\n      dup1\n        /* \"#utility.yul\":2355:2358   */\n      dup3\n        /* \"#utility.yul\":2351:2362   */\n      add\n        /* \"#utility.yul\":2345:2363   */\n      mload\n        /* \"#utility.yul\":2341:2342   */\n      dup2\n        /* \"#utility.yul\":2336:2339   */\n      dup5\n        /* \"#utility.yul\":2332:2343   */\n      add\n        /* \"#utility.yul\":2325:2364   */\n      mstore\n        /* \"#utility.yul\":2297:2299   */\n      0x20\n        /* \"#utility.yul\":2294:2295   */\n      dup2\n        /* \"#utility.yul\":2290:2300   */\n      add\n        /* \"#utility.yul\":2285:2300   */\n      swap1\n      pop\n        /* \"#utility.yul\":2261:2374   */\n      jump(tag_143)\n    tag_145:\n        /* \"#utility.yul\":2408:2409   */\n      0x00\n        /* \"#utility.yul\":2399:2405   */\n      dup5\n        /* \"#utility.yul\":2394:2397   */\n      dup5\n        /* \"#utility.yul\":2390:2406   */\n      add\n        /* \"#utility.yul\":2383:2410   */\n      mstore\n        /* \"#utility.yul\":2232:2416   */\n      pop\n        /* \"#utility.yul\":2170:2416   */\n      pop\n      pop\n      pop\n      jump\t// out\n        /* \"#utility.yul\":2422:2524   */\n    tag_108:\n        /* \"#utility.yul\":2463:2469   */\n      0x00\n        /* \"#utility.yul\":2514:2516   */\n      0x1f\n        /* \"#utility.yul\":2510:2517   */\n      not\n        /* \"#utility.yul\":2505:2507   */\n      0x1f\n        /* \"#utility.yul\":2498:2503   */\n      dup4\n        /* \"#utility.yul\":2494:2508   */\n      add\n        /* \"#utility.yul\":2490:2518   */\n      and\n        /* \"#utility.yul\":2480:2518   */\n      swap1\n      pop\n        /* \"#utility.yul\":2422:2524   */\n      swap2\n      swap1\n      pop\n      jump\t// out\n        /* \"#utility.yul\":2530:2907   */\n    tag_109:\n        /* \"#utility.yul\":2618:2621   */\n      0x00\n        /* \"#utility.yul\":2646:2685   */\n      tag_148\n        /* \"#utility.yul\":2679:2684   */\n      dup3\n        /* \"#utility.yul\":2646:2685   */\n      tag_105\n      jump\t// in\n    tag_148:\n        /* \"#utility.yul\":2701:2772   */\n      tag_149\n        /* \"#utility.yul\":2765:2771   */\n      dup2\n        /* \"#utility.yul\":2760:2763   */\n      dup6\n        /* \"#utility.yul\":2701:2772   */\n      tag_106\n      jump\t// in\n    tag_149:\n        /* \"#utility.yul\":2694:2772   */\n      swap4\n      pop\n        /* \"#utility.yul\":2781:2846   */\n      tag_150\n        /* \"#utility.yul\":2839:2845   */\n      dup2\n        /* \"#utility.yul\":2834:2837   */\n      dup6\n        /* \"#utility.yul\":2827:2831   */\n      0x20\n        /* \"#utility.yul\":2820:2825   */\n      dup7\n        /* \"#utility.yul\":2816:2832   */\n      add\n        /* \"#utility.yul\":2781:2846   */\n      tag_107\n      jump\t// in\n    tag_150:\n        /* \"#utility.yul\":2871:2900   */\n      tag_151\n        /* \"#utility.yul\":2893:2899   */\n      dup2\n        /* \"#utility.yul\":2871:2900   */\n      tag_108\n      jump\t// in\n    tag_151:\n        /* \"#utility.yul\":2866:2869   */\n      dup5\n        /* \"#utility.yul\":2862:2901   */\n      add\n        /* \"#utility.yul\":2855:2901   */\n      swap2\n      pop\n        /* \"#utility.yul\":2622:2907   */\n      pop\n        /* \"#utility.yul\":2530:2907   */\n      swap3\n      swap2\n      pop\n      pop\n      jump\t// out\n        /* \"#utility.yul\":2913:3226   */\n    tag_59:\n        /* \"#utility.yul\":3026:3030   */\n      0x00\n        /* \"#utility.yul\":3064:3066   */\n      0x20\n        /* \"#utility.yul\":3053:3062   */\n      dup3\n        /* \"#utility.yul\":3049:3067   */\n      add\n        /* \"#utility.yul\":3041:3067   */\n      swap1\n      pop\n        /* \"#utility.yul\":3113:3122   */\n      dup2\n        /* \"#utility.yul\":3107:3111   */\n      dup2\n        /* \"#utility.yul\":3103:3123   */\n      sub\n        /* \"#utility.yul\":3099:3100   */\n      0x00\n        /* \"#utility.yul\":3088:3097   */\n      dup4\n        /* \"#utility.yul\":3084:3101   */\n      add\n        /* \"#utility.yul\":3077:3124   */\n      mstore\n        /* \"#utility.yul\":3141:3219   */\n      tag_153\n        /* \"#utility.yul\":3214:3218   */\n      dup2\n        /* \"#utility.yul\":3205:3211   */\n      dup5\n        /* \"#utility.yul\":3141:3219   */\n      tag_109\n      jump\t// in\n    tag_153:\n        /* \"#utility.yul\":3133:3219   */\n      swap1\n      pop\n        /* \"#utility.yul\":2913:3226   */\n      swap3\n      swap2\n      pop\n      pop\n      jump\t// out\n        /* \"#utility.yul\":3232:3336   */\n    tag_110:\n        /* \"#utility.yul\":3277:3284   */\n      0x00\n        /* \"#utility.yul\":3306:3330   */\n      tag_155\n        /* \"#utility.yul\":3324:3329   */\n      dup3\n        /* \"#utility.yul\":3306:3330   */\n      tag_96\n      jump\t// in\n    tag_155:\n        /* \"#utility.yul\":3295:3330   */\n      swap1\n      pop\n        /* \"#utility.yul\":3232:3336   */\n      swap2\n      swap1\n      pop\n      jump\t// out\n        /* \"#utility.yul\":3342:3484   */\n    tag_111:\n        /* \"#utility.yul\":3445:3477   */\n      tag_157\n        /* \"#utility.yul\":3471:3476   */\n      dup2\n        /* \"#utility.yul\":3445:3477   */\n      tag_110\n      jump\t// in\n    tag_157:\n        /* \"#utility.yul\":3440:3443   */\n      dup3\n        /* \"#utility.yul\":3433:3478   */\n      mstore\n        /* \"#utility.yul\":3342:3484   */\n      pop\n      pop\n      jump\t// out\n        /* \"#utility.yul\":3490:3744   */\n    tag_72:\n        /* \"#utility.yul\":3599:3603   */\n      0x00\n        /* \"#utility.yul\":3637:3639   */\n      0x20\n        /* \"#utility.yul\":3626:3635   */\n      dup3\n        /* \"#utility.yul\":3622:3640   */\n      add\n        /* \"#utility.yul\":3614:3640   */\n      swap1\n      pop\n        /* \"#utility.yul\":3650:3737   */\n      tag_159\n        /* \"#utility.yul\":3734:3735   */\n      0x00\n        /* \"#utility.yul\":3723:3732   */\n      dup4\n        /* \"#utility.yul\":3719:3736   */\n      add\n        /* \"#utility.yul\":3710:3716   */\n      dup5\n        /* \"#utility.yul\":3650:3737   */\n      tag_111\n      jump\t// in\n    tag_159:\n        /* \"#utility.yul\":3490:3744   */\n      swap3\n      swap2\n      pop\n      pop\n      jump\t// out\n        /* \"#utility.yul\":3750:3899   */\n    tag_112:\n        /* \"#utility.yul\":3786:3793   */\n      0x00\n        /* \"#utility.yul\":3826:3892   */\n      0xff00000000000000000000000000000000000000000000000000000000000000\n        /* \"#utility.yul\":3819:3824   */\n      dup3\n        /* \"#utility.yul\":3815:3893   */\n      and\n        /* \"#utility.yul\":3804:3893   */\n      swap1\n      pop\n        /* \"#utility.yul\":3750:3899   */\n      swap2\n      swap1\n      pop\n      jump\t// out\n        /* \"#utility.yul\":3905:4020   */\n    tag_113:\n        /* \"#utility.yul\":3990:4013   */\n      tag_162\n        /* \"#utility.yul\":4007:4012   */\n      dup2\n        /* \"#utility.yul\":3990:4013   */\n      tag_112\n      jump\t// in\n    tag_162:\n        /* \"#utility.yul\":3985:3988   */\n      dup3\n        /* \"#utility.yul\":3978:4014   */\n      mstore\n        /* \"#utility.yul\":3905:4020   */\n      pop\n      pop\n      jump\t// out\n        /* \"#utility.yul\":4026:4244   */\n    tag_76:\n        /* \"#utility.yul\":4117:4121   */\n      0x00\n        /* \"#utility.yul\":4155:4157   */\n      0x20\n        /* \"#utility.yul\":4144:4153   */\n      dup3\n        /* \"#utility.yul\":4140:4158   */\n      add\n        /* \"#utility.yul\":4132:4158   */\n      swap1\n      pop\n        /* \"#utility.yul\":4168:4237   */\n      tag_164\n        /* \"#utility.yul\":4234:4235   */\n      0x00\n        /* \"#utility.yul\":4223:4232   */\n      dup4\n        /* \"#utility.yul\":4219:4236   */\n      add\n        /* \"#utility.yul\":4210:4216   */\n      dup5\n        /* \"#utility.yul\":4168:4237   */\n      tag_113\n      jump\t// in\n    tag_164:\n        /* \"#utility.yul\":4026:4244   */\n      swap3\n      swap2\n      pop\n      pop\n      jump\t// out\n        /* \"#utility.yul\":4250:4326   */\n    tag_114:\n        /* \"#utility.yul\":4286:4293   */\n      0x00\n        /* \"#utility.yul\":4315:4320   */\n      dup2\n        /* \"#utility.yul\":4304:4320   */\n      swap1\n      pop\n        /* \"#utility.yul\":4250:4326   */\n      swap2\n      swap1\n      pop\n      jump\t// out\n        /* \"#utility.yul\":4332:4447   */\n    tag_115:\n        /* \"#utility.yul\":4417:4440   */\n      tag_167\n        /* \"#utility.yul\":4434:4439   */\n      dup2\n        /* \"#utility.yul\":4417:4440   */\n      tag_114\n      jump\t// in\n    tag_167:\n        /* \"#utility.yul\":4412:4415   */\n      dup3\n        /* \"#utility.yul\":4405:4441   */\n      mstore\n        /* \"#utility.yul\":4332:4447   */\n      pop\n      pop\n      jump\t// out\n        /* \"#utility.yul\":4453:4671   */\n    tag_80:\n        /* \"#utility.yul\":4544:4548   */\n      0x00\n        /* \"#utility.yul\":4582:4584   */\n      0x20\n        /* \"#utility.yul\":4571:4580   */\n      dup3\n        /* \"#utility.yul\":4567:4585   */\n      add\n        /* \"#utility.yul\":4559:4585   */\n      swap1\n      pop\n        /* \"#utility.yul\":4595:4664   */\n      tag_169\n        /* \"#utility.yul\":4661:4662   */\n      0x00\n        /* \"#utility.yul\":4650:4659   */\n      dup4\n        /* \"#utility.yul\":4646:4663   */\n      add\n        /* \"#utility.yul\":4637:4643   */\n      dup5\n        /* \"#utility.yul\":4595:4664   */\n      tag_115\n      jump\t// in\n    tag_169:\n        /* \"#utility.yul\":4453:4671   */\n      swap3\n      swap2\n      pop\n      pop\n      jump\t// out\n        /* \"#utility.yul\":4677:4857   */\n    tag_116:\n        /* \"#utility.yul\":4725:4802   */\n      0x4e487b7100000000000000000000000000000000000000000000000000000000\n        /* \"#utility.yul\":4722:4723   */\n      0x00\n        /* \"#utility.yul\":4715:4803   */\n      mstore\n        /* \"#utility.yul\":4822:4826   */\n      0x22\n        /* \"#utility.yul\":4819:4820   */\n      0x04\n        /* \"#utility.yul\":4812:4827   */\n      mstore\n        /* \"#utility.yul\":4846:4850   */\n      0x24\n        /* \"#utility.yul\":4843:4844   */\n      0x00\n        /* \"#utility.yul\":4836:4851   */\n      revert\n        /* \"#utility.yul\":4863:5183   */\n    tag_91:\n        /* \"#utility.yul\":4907:4913   */\n      0x00\n        /* \"#utility.yul\":4944:4945   */\n      0x02\n        /* \"#utility.yul\":4938:4942   */\n      dup3\n        /* \"#utility.yul\":4934:4946   */\n      div\n        /* \"#utility.yul\":4924:4946   */\n      swap1\n      pop\n        /* \"#utility.yul\":4991:4992   */\n      0x01\n        /* \"#utility.yul\":4985:4989   */\n      dup3\n        /* \"#utility.yul\":4981:4993   */\n      and\n        /* \"#utility.yul\":5012:5030   */\n      dup1\n        /* \"#utility.yul\":5002:5083   */\n      tag_172\n      jumpi\n        /* \"#utility.yul\":5068:5072   */\n      0x7f\n        /* \"#utility.yul\":5060:5066   */\n      dup3\n        /* \"#utility.yul\":5056:5073   */\n      and\n        /* \"#utility.yul\":5046:5073   */\n      swap2\n      pop\n        /* \"#utility.yul\":5002:5083   */\n    tag_172:\n        /* \"#utility.yul\":5130:5132   */\n      0x20\n        /* \"#utility.yul\":5122:5128   */\n      dup3\n        /* \"#utility.yul\":5119:5133   */\n      lt\n        /* \"#utility.yul\":5099:5117   */\n      dup2\n        /* \"#utility.yul\":5096:5134   */\n      sub\n        /* \"#utility.yul\":5093:5177   */\n      tag_173\n      jumpi\n        /* \"#utility.yul\":5149:5167   */\n      tag_174\n      tag_116\n      jump\t// in\n    tag_174:\n        /* \"#utility.yul\":5093:5177   */\n    tag_173:\n        /* \"#utility.yul\":4914:5183   */\n      pop\n        /* \"#utility.yul\":4863:5183   */\n      swap2\n      swap1\n      pop\n      jump\t// out\n\n    auxdata: 0xa26469706673582212208edfcf8e235631d2567c9548e8e951e83a979803342e13f7c5a191119a3240fd64736f6c63430008110033\n}\n",
				"bytecode": {
					"linkReferences": {},
					"object": "60806040526040518060400160405280600b81526020017f48656c6c6f205765623321000000000000000000000000000000000000000000815250600090816200004a9190620005d3565b5060018060006101000a81548160ff021916908315150217905550600160009054906101000a900460ff16156001806101000a81548160ff021916908315150217905550600160009054906101000a900460ff168015620000b5575060018054906101000a900460ff165b600160026101000a81548160ff021916908315150217905550600160009054906101000a900460ff1680620000f4575060018054906101000a900460ff165b600160036101000a81548160ff02191690831515021790555060018054906101000a900460ff161515600160009054906101000a900460ff16151514600160046101000a81548160ff02191690831515021790555060018054906101000a900460ff161515600160009054906101000a900460ff1615151415600160056101000a81548160ff0219169083151502179055507fffffffffffffffffffffffffffffffffffffffffffffffffffffffffffffffff600255600160035563013489aa6004556001600454620001c89190620006e9565b6005556004600655600160075560075460065411600860006101000a81548160ff021916908315150217905550735b38da6a701c568545dcfcb03fcb875f56beddc4600860016101000a81548173ffffffffffffffffffffffffffffffffffffffff021916908373ffffffffffffffffffffffffffffffffffffffff160217905550600860019054906101000a900473ffffffffffffffffffffffffffffffffffffffff16600960006101000a81548173ffffffffffffffffffffffffffffffffffffffff021916908373ffffffffffffffffffffffffffffffffffffffff160217905550600960009054906101000a900473ffffffffffffffffffffffffffffffffffffffff1673ffffffffffffffffffffffffffffffffffffffff1631600a557f4d696e69536f6c69646974790000000000000000000000000000000000000000600b55600b5460006020811062000327576200032662000724565b5b1a60f81b600c60006101000a81548160ff021916908360f81c02179055503480156200035257600080fd5b5062000753565b600081519050919050565b7f4e487b7100000000000000000000000000000000000000000000000000000000600052604160045260246000fd5b7f4e487b7100000000000000000000000000000000000000000000000000000000600052602260045260246000fd5b60006002820490506001821680620003db57607f821691505b602082108103620003f157620003f062000393565b5b50919050565b60008190508160005260206000209050919050565b60006020601f8301049050919050565b600082821b905092915050565b6000600883026200045b7fffffffffffffffffffffffffffffffffffffffffffffffffffffffffffffffff826200041c565b6200046786836200041c565b95508019841693508086168417925050509392505050565b6000819050919050565b6000819050919050565b6000620004b4620004ae620004a8846200047f565b62000489565b6200047f565b9050919050565b6000819050919050565b620004d08362000493565b620004e8620004df82620004bb565b84845462000429565b825550505050565b600090565b620004ff620004f0565b6200050c818484620004c5565b505050565b5b81811015620005345762000528600082620004f5565b60018101905062000512565b5050565b601f82111562000583576200054d81620003f7565b62000558846200040c565b8101602085101562000568578190505b6200058062000577856200040c565b83018262000511565b50505b505050565b600082821c905092915050565b6000620005a86000198460080262000588565b1980831691505092915050565b6000620005c3838362000595565b9150826002028217905092915050565b620005de8262000359565b67ffffffffffffffff811115620005fa57620005f962000364565b5b620006068254620003c2565b6200061382828562000538565b600060209050601f8311600181146200064b576000841562000636578287015190505b620006428582620005b5565b865550620006b2565b601f1984166200065b86620003f7565b60005b8281101562000685578489015182556001820191506020850194506020810190506200065e565b86831015620006a55784890151620006a1601f89168262000595565b8355505b6001600288020188555050505b505050505050565b7f4e487b7100000000000000000000000000000000000000000000000000000000600052601160045260246000fd5b6000620006f6826200047f565b915062000703836200047f565b92508282019050808211156200071e576200071d620006ba565b5b92915050565b7f4e487b7100000000000000000000000000000000000000000000000000000000600052603260045260246000fd5b61080880620007636000396000f3fe608060405234801561001057600080fd5b50600436106101215760003560e01c80639b267f09116100ad578063aeb6f29211610071578063aeb6f292146102ca578063af45869e146102e8578063b69ef8a814610306578063e37c6c8214610324578063f9bd55cc1461034257610121565b80639b267f09146102345780639e6ba9c214610252578063a2e7fe8a14610270578063aa9949261461028e578063ac729403146102ac57610121565b80632b36a762116100f45780632b36a7621461019e5780633f346102146101bc5780636b1d2c4e146101da5780636e8d0c9e146101f8578063924b3d211461021657610121565b806318bad2171461012657806319bff7df146101445780631db19d8c146101625780632543135b14610180575b600080fd5b61012e610360565b60405161013b9190610541565b60405180910390f35b61014c610386565b6040516101599190610575565b60405180910390f35b61016a61038c565b60405161017791906105ab565b60405180910390f35b61018861039f565b6040516101959190610575565b60405180910390f35b6101a66103a5565b6040516101b391906105ab565b60405180910390f35b6101c46103b8565b6040516101d191906105df565b60405180910390f35b6101e26103be565b6040516101ef9190610575565b60405180910390f35b6102006103c4565b60405161020d9190610575565b60405180910390f35b61021e6103ca565b60405161022b91906105ab565b60405180910390f35b61023c6103db565b604051610249919061068a565b60405180910390f35b61025a610469565b60405161026791906105ab565b60405180910390f35b61027861047c565b60405161028591906105ab565b60405180910390f35b61029661048f565b6040516102a391906105ab565b60405180910390f35b6102b46104a2565b6040516102c191906106cd565b60405180910390f35b6102d26104c8565b6040516102df9190610723565b60405180910390f35b6102f06104db565b6040516102fd9190610757565b60405180910390f35b61030e6104e1565b60405161031b9190610575565b60405180910390f35b61032c6104e7565b60405161033991906105ab565b60405180910390f35b61034a6104fa565b6040516103579190610575565b60405180910390f35b600860019054906101000a900473ffffffffffffffffffffffffffffffffffffffff1681565b60075481565b600160059054906101000a900460ff1681565b60035481565b600160049054906101000a900460ff1681565b600b5481565b60065481565b60055481565b60018054906101000a900460ff1681565b600080546103e8906107a1565b80601f0160208091040260200160405190810160405280929190818152602001828054610414906107a1565b80156104615780601f1061043657610100808354040283529160200191610461565b820191906000526020600020905b81548152906001019060200180831161044457829003601f168201915b505050505081565b600160009054906101000a900460ff1681565b600160029054906101000a900460ff1681565b600160039054906101000a900460ff1681565b600960009054906101000a900473ffffffffffffffffffffffffffffffffffffffff1681565b600c60009054906101000a900460f81b81565b60025481565b600a5481565b600860009054906101000a900460ff1681565b60045481565b600073ffffffffffffffffffffffffffffffffffffffff82169050919050565b600061052b82610500565b9050919050565b61053b81610520565b82525050565b60006020820190506105566000830184610532565b92915050565b6000819050919050565b61056f8161055c565b82525050565b600060208201905061058a6000830184610566565b92915050565b60008115159050919050565b6105a581610590565b82525050565b60006020820190506105c0600083018461059c565b92915050565b6000819050919050565b6105d9816105c6565b82525050565b60006020820190506105f460008301846105d0565b92915050565b600081519050919050565b600082825260208201905092915050565b60005b83811015610634578082015181840152602081019050610619565b60008484015250505050565b6000601f19601f8301169050919050565b600061065c826105fa565b6106668185610605565b9350610676818560208601610616565b61067f81610640565b840191505092915050565b600060208201905081810360008301526106a48184610651565b905092915050565b60006106b782610500565b9050919050565b6106c7816106ac565b82525050565b60006020820190506106e260008301846106be565b92915050565b60007fff0000000000000000000000000000000000000000000000000000000000000082169050919050565b61071d816106e8565b82525050565b60006020820190506107386000830184610714565b92915050565b6000819050919050565b6107518161073e565b82525050565b600060208201905061076c6000830184610748565b92915050565b7f4e487b7100000000000000000000000000000000000000000000000000000000600052602260045260246000fd5b600060028204905060018216806107b957607f821691505b6020821081036107cc576107cb610772565b5b5091905056fea26469706673582212208edfcf8e235631d2567c9548e8e951e83a979803342e13f7c5a191119a3240fd64736f6c63430008110033",
					"opcodes": "PUSH1 0x80 PUSH1 0x40 MSTORE PUSH1 0x40 MLOAD DUP1 PUSH1 0x40 ADD PUSH1 0x40 MSTORE DUP1 PUSH1 0xB DUP2 MSTORE PUSH1 0x20 ADD PUSH32 0x48656C6C6F205765623321000000000000000000000000000000000000000000 DUP2 MSTORE POP PUSH1 0x0 SWAP1 DUP2 PUSH3 0x4A SWAP2 SWAP1 PUSH3 0x5D3 JUMP JUMPDEST POP PUSH1 0x1 DUP1 PUSH1 0x0 PUSH2 0x100 EXP DUP2 SLOAD DUP2 PUSH1 0xFF MUL NOT AND SWAP1 DUP4 ISZERO ISZERO MUL OR SWAP1 SSTORE POP PUSH1 0x1 PUSH1 0x0 SWAP1 SLOAD SWAP1 PUSH2 0x100 EXP SWAP1 DIV PUSH1 0xFF AND ISZERO PUSH1 0x1 DUP1 PUSH2 0x100 EXP DUP2 SLOAD DUP2 PUSH1 0xFF MUL NOT AND SWAP1 DUP4 ISZERO ISZERO MUL OR SWAP1 SSTORE POP PUSH1 0x1 PUSH1 0x0 SWAP1 SLOAD SWAP1 PUSH2 0x100 EXP SWAP1 DIV PUSH1 0xFF AND DUP1 ISZERO PUSH3 0xB5 JUMPI POP PUSH1 0x1 DUP1 SLOAD SWAP1 PUSH2 0x100 EXP SWAP1 DIV PUSH1 0xFF AND JUMPDEST PUSH1 0x1 PUSH1 0x2 PUSH2 0x100 EXP DUP2 SLOAD DUP2 PUSH1 0xFF MUL NOT AND SWAP1 DUP4 ISZERO ISZERO MUL OR SWAP1 SSTORE POP PUSH1 0x1 PUSH1 0x0 SWAP1 SLOAD SWAP1 PUSH2 0x100 EXP SWAP1 DIV PUSH1 0xFF AND DUP1 PUSH3 0xF4 JUMPI POP PUSH1 0x1 DUP1 SLOAD SWAP1 PUSH2 0x100 EXP SWAP1 DIV PUSH1 0xFF AND JUMPDEST PUSH1 0x1 PUSH1 0x3 PUSH2 0x100 EXP DUP2 SLOAD DUP2 PUSH1 0xFF MUL NOT AND SWAP1 DUP4 ISZERO ISZERO MUL OR SWAP1 SSTORE POP PUSH1 0x1 DUP1 SLOAD SWAP1 PUSH2 0x100 EXP SWAP1 DIV PUSH1 0xFF AND ISZERO ISZERO PUSH1 0x1 PUSH1 0x0 SWAP1 SLOAD SWAP1 PUSH2 0x100 EXP SWAP1 DIV PUSH1 0xFF AND ISZERO ISZERO EQ PUSH1 0x1 PUSH1 0x4 PUSH2 0x100 EXP DUP2 SLOAD DUP2 PUSH1 0xFF MUL NOT AND SWAP1 DUP4 ISZERO ISZERO MUL OR SWAP1 SSTORE POP PUSH1 0x1 DUP1 SLOAD SWAP1 PUSH2 0x100 EXP SWAP1 DIV PUSH1 0xFF AND ISZERO ISZERO PUSH1 0x1 PUSH1 0x0 SWAP1 SLOAD SWAP1 PUSH2 0x100 EXP SWAP1 DIV PUSH1 0xFF AND ISZERO ISZERO EQ ISZERO PUSH1 0x1 PUSH1 0x5 PUSH2 0x100 EXP DUP2 SLOAD DUP2 PUSH1 0xFF MUL NOT AND SWAP1 DUP4 ISZERO ISZERO MUL OR SWAP1 SSTORE POP PUSH32 0xFFFFFFFFFFFFFFFFFFFFFFFFFFFFFFFFFFFFFFFFFFFFFFFFFFFFFFFFFFFFFFFF PUSH1 0x2 SSTORE PUSH1 0x1 PUSH1 0x3 SSTORE PUSH4 0x13489AA PUSH1 0x4 SSTORE PUSH1 0x1 PUSH1 0x4 SLOAD PUSH3 0x1C8 SWAP2 SWAP1 PUSH3 0x6E9 JUMP JUMPDEST PUSH1 0x5 SSTORE PUSH1 0x4 PUSH1 0x6 SSTORE PUSH1 0x1 PUSH1 0x7 SSTORE PUSH1 0x7 SLOAD PUSH1 0x6 SLOAD GT PUSH1 0x8 PUSH1 0x0 PUSH2 0x100 EXP DUP2 SLOAD DUP2 PUSH1 0xFF MUL NOT AND SWAP1 DUP4 ISZERO ISZERO MUL OR SWAP1 SSTORE POP PUSH20 0x5B38DA6A701C568545DCFCB03FCB875F56BEDDC4 PUSH1 0x8 PUSH1 0x1 PUSH2 0x100 EXP DUP2 SLOAD DUP2 PUSH20 0xFFFFFFFFFFFFFFFFFFFFFFFFFFFFFFFFFFFFFFFF MUL NOT AND SWAP1 DUP4 PUSH20 0xFFFFFFFFFFFFFFFFFFFFFFFFFFFFFFFFFFFFFFFF AND MUL OR SWAP1 SSTORE POP PUSH1 0x8 PUSH1 0x1 SWAP1 SLOAD SWAP1 PUSH2 0x100 EXP SWAP1 DIV PUSH20 0xFFFFFFFFFFFFFFFFFFFFFFFFFFFFFFFFFFFFFFFF AND PUSH1 0x9 PUSH1 0x0 PUSH2 0x100 EXP DUP2 SLOAD DUP2 PUSH20 0xFFFFFFFFFFFFFFFFFFFFFFFFFFFFFFFFFFFFFFFF MUL NOT AND SWAP1 DUP4 PUSH20 0xFFFFFFFFFFFFFFFFFFFFFFFFFFFFFFFFFFFFFFFF AND MUL OR SWAP1 SSTORE POP PUSH1 0x9 PUSH1 0x0 SWAP1 SLOAD SWAP1 PUSH2 0x100 EXP SWAP1 DIV PUSH20 0xFFFFFFFFFFFFFFFFFFFFFFFFFFFFFFFFFFFFFFFF AND PUSH20 0xFFFFFFFFFFFFFFFFFFFFFFFFFFFFFFFFFFFFFFFF AND BALANCE PUSH1 0xA SSTORE PUSH32 0x4D696E69536F6C69646974790000000000000000000000000000000000000000 PUSH1 0xB SSTORE PUSH1 0xB SLOAD PUSH1 0x0 PUSH1 0x20 DUP2 LT PUSH3 0x327 JUMPI PUSH3 0x326 PUSH3 0x724 JUMP JUMPDEST JUMPDEST BYTE PUSH1 0xF8 SHL PUSH1 0xC PUSH1 0x0 PUSH2 0x100 EXP DUP2 SLOAD DUP2 PUSH1 0xFF MUL NOT AND SWAP1 DUP4 PUSH1 0xF8 SHR MUL OR SWAP1 SSTORE POP CALLVALUE DUP1 ISZERO PUSH3 0x352 JUMPI PUSH1 0x0 DUP1 REVERT JUMPDEST POP PUSH3 0x753 JUMP JUMPDEST PUSH1 0x0 DUP2 MLOAD SWAP1 POP SWAP2 SWAP1 POP JUMP JUMPDEST PUSH32 0x4E487B7100000000000000000000000000000000000000000000000000000000 PUSH1 0x0 MSTORE PUSH1 0x41 PUSH1 0x4 MSTORE PUSH1 0x24 PUSH1 0x0 REVERT JUMPDEST PUSH32 0x4E487B7100000000000000000000000000000000000000000000000000000000 PUSH1 0x0 MSTORE PUSH1 0x22 PUSH1 0x4 MSTORE PUSH1 0x24 PUSH1 0x0 REVERT JUMPDEST PUSH1 0x0 PUSH1 0x2 DUP3 DIV SWAP1 POP PUSH1 0x1 DUP3 AND DUP1 PUSH3 0x3DB JUMPI PUSH1 0x7F DUP3 AND SWAP2 POP JUMPDEST PUSH1 0x20 DUP3 LT DUP2 SUB PUSH3 0x3F1 JUMPI PUSH3 0x3F0 PUSH3 0x393 JUMP JUMPDEST JUMPDEST POP SWAP2 SWAP1 POP JUMP JUMPDEST PUSH1 0x0 DUP2 SWAP1 POP DUP2 PUSH1 0x0 MSTORE PUSH1 0x20 PUSH1 0x0 KECCAK256 SWAP1 POP SWAP2 SWAP1 POP JUMP JUMPDEST PUSH1 0x0 PUSH1 0x20 PUSH1 0x1F DUP4 ADD DIV SWAP1 POP SWAP2 SWAP1 POP JUMP JUMPDEST PUSH1 0x0 DUP3 DUP3 SHL SWAP1 POP SWAP3 SWAP2 POP POP JUMP JUMPDEST PUSH1 0x0 PUSH1 0x8 DUP4 MUL PUSH3 0x45B PUSH32 0xFFFFFFFFFFFFFFFFFFFFFFFFFFFFFFFFFFFFFFFFFFFFFFFFFFFFFFFFFFFFFFFF DUP3 PUSH3 0x41C JUMP JUMPDEST PUSH3 0x467 DUP7 DUP4 PUSH3 0x41C JUMP JUMPDEST SWAP6 POP DUP1 NOT DUP5 AND SWAP4 POP DUP1 DUP7 AND DUP5 OR SWAP3 POP POP POP SWAP4 SWAP3 POP POP POP JUMP JUMPDEST PUSH1 0x0 DUP2 SWAP1 POP SWAP2 SWAP1 POP JUMP JUMPDEST PUSH1 0x0 DUP2 SWAP1 POP SWAP2 SWAP1 POP JUMP JUMPDEST PUSH1 0x0 PUSH3 0x4B4 PUSH3 0x4AE PUSH3 0x4A8 DUP5 PUSH3 0x47F JUMP JUMPDEST PUSH3 0x489 JUMP JUMPDEST PUSH3 0x47F JUMP JUMPDEST SWAP1 POP SWAP2 SWAP1 POP JUMP JUMPDEST PUSH1 0x0 DUP2 SWAP1 POP SWAP2 SWAP1 POP JUMP JUMPDEST PUSH3 0x4D0 DUP4 PUSH3 0x493 JUMP JUMPDEST PUSH3 0x4E8 PUSH3 0x4DF DUP3 PUSH3 0x4BB JUMP JUMPDEST DUP5 DUP5 SLOAD PUSH3 0x429 JUMP JUMPDEST DUP3 SSTORE POP POP POP POP JUMP JUMPDEST PUSH1 0x0 SWAP1 JUMP JUMPDEST PUSH3 0x4FF PUSH3 0x4F0 JUMP JUMPDEST PUSH3 0x50C DUP2 DUP5 DUP5 PUSH3 0x4C5 JUMP JUMPDEST POP POP POP JUMP JUMPDEST JUMPDEST DUP2 DUP2 LT ISZERO PUSH3 0x534 JUMPI PUSH3 0x528 PUSH1 0x0 DUP3 PUSH3 0x4F5 JUMP JUMPDEST PUSH1 0x1 DUP2 ADD SWAP1 POP PUSH3 0x512 JUMP JUMPDEST POP POP JUMP JUMPDEST PUSH1 0x1F DUP3 GT ISZERO PUSH3 0x583 JUMPI PUSH3 0x54D DUP2 PUSH3 0x3F7 JUMP JUMPDEST PUSH3 0x558 DUP5 PUSH3 0x40C JUMP JUMPDEST DUP2 ADD PUSH1 0x20 DUP6 LT ISZERO PUSH3 0x568 JUMPI DUP2 SWAP1 POP JUMPDEST PUSH3 0x580 PUSH3 0x577 DUP6 PUSH3 0x40C JUMP JUMPDEST DUP4 ADD DUP3 PUSH3 0x511 JUMP JUMPDEST POP POP JUMPDEST POP POP POP JUMP JUMPDEST PUSH1 0x0 DUP3 DUP3 SHR SWAP1 POP SWAP3 SWAP2 POP POP JUMP JUMPDEST PUSH1 0x0 PUSH3 0x5A8 PUSH1 0x0 NOT DUP5 PUSH1 0x8 MUL PUSH3 0x588 JUMP JUMPDEST NOT DUP1 DUP4 AND SWAP2 POP POP SWAP3 SWAP2 POP POP JUMP JUMPDEST PUSH1 0x0 PUSH3 0x5C3 DUP4 DUP4 PUSH3 0x595 JUMP JUMPDEST SWAP2 POP DUP3 PUSH1 0x2 MUL DUP3 OR SWAP1 POP SWAP3 SWAP2 POP POP JUMP JUMPDEST PUSH3 0x5DE DUP3 PUSH3 0x359 JUMP JUMPDEST PUSH8 0xFFFFFFFFFFFFFFFF DUP2 GT ISZERO PUSH3 0x5FA JUMPI PUSH3 0x5F9 PUSH3 0x364 JUMP JUMPDEST JUMPDEST PUSH3 0x606 DUP3 SLOAD PUSH3 0x3C2 JUMP JUMPDEST PUSH3 0x613 DUP3 DUP3 DUP6 PUSH3 0x538 JUMP JUMPDEST PUSH1 0x0 PUSH1 0x20 SWAP1 POP PUSH1 0x1F DUP4 GT PUSH1 0x1 DUP2 EQ PUSH3 0x64B JUMPI PUSH1 0x0 DUP5 ISZERO PUSH3 0x636 JUMPI DUP3 DUP8 ADD MLOAD SWAP1 POP JUMPDEST PUSH3 0x642 DUP6 DUP3 PUSH3 0x5B5 JUMP JUMPDEST DUP7 SSTORE POP PUSH3 0x6B2 JUMP JUMPDEST PUSH1 0x1F NOT DUP5 AND PUSH3 0x65B DUP7 PUSH3 0x3F7 JUMP JUMPDEST PUSH1 0x0 JUMPDEST DUP3 DUP2 LT ISZERO PUSH3 0x685 JUMPI DUP5 DUP10 ADD MLOAD DUP3 SSTORE PUSH1 0x1 DUP3 ADD SWAP2 POP PUSH1 0x20 DUP6 ADD SWAP5 POP PUSH1 0x20 DUP2 ADD SWAP1 POP PUSH3 0x65E JUMP JUMPDEST DUP7 DUP4 LT ISZERO PUSH3 0x6A5 JUMPI DUP5 DUP10 ADD MLOAD PUSH3 0x6A1 PUSH1 0x1F DUP10 AND DUP3 PUSH3 0x595 JUMP JUMPDEST DUP4 SSTORE POP JUMPDEST PUSH1 0x1 PUSH1 0x2 DUP9 MUL ADD DUP9 SSTORE POP POP POP JUMPDEST POP POP POP POP POP POP JUMP JUMPDEST PUSH32 0x4E487B7100000000000000000000000000000000000000000000000000000000 PUSH1 0x0 MSTORE PUSH1 0x11 PUSH1 0x4 MSTORE PUSH1 0x24 PUSH1 0x0 REVERT JUMPDEST PUSH1 0x0 PUSH3 0x6F6 DUP3 PUSH3 0x47F JUMP JUMPDEST SWAP2 POP PUSH3 0x703 DUP4 PUSH3 0x47F JUMP JUMPDEST SWAP3 POP DUP3 DUP3 ADD SWAP1 POP DUP1 DUP3 GT ISZERO PUSH3 0x71E JUMPI PUSH3 0x71D PUSH3 0x6BA JUMP JUMPDEST JUMPDEST SWAP3 SWAP2 POP POP JUMP JUMPDEST PUSH32 0x4E487B7100000000000000000000000000000000000000000000000000000000 PUSH1 0x0 MSTORE PUSH1 0x32 PUSH1 0x4 MSTORE PUSH1 0x24 PUSH1 0x0 REVERT JUMPDEST PUSH2 0x808 DUP1 PUSH3 0x763 PUSH1 0x0 CODECOPY PUSH1 0x0 RETURN INVALID PUSH1 0x80 PUSH1 0x40 MSTORE CALLVALUE DUP1 ISZERO PUSH2 0x10 JUMPI PUSH1 0x0 DUP1 REVERT JUMPDEST POP PUSH1 0x4 CALLDATASIZE LT PUSH2 0x121 JUMPI PUSH1 0x0 CALLDATALOAD PUSH1 0xE0 SHR DUP1 PUSH4 0x9B267F09 GT PUSH2 0xAD JUMPI DUP1 PUSH4 0xAEB6F292 GT PUSH2 0x71 JUMPI DUP1 PUSH4 0xAEB6F292 EQ PUSH2 0x2CA JUMPI DUP1 PUSH4 0xAF45869E EQ PUSH2 0x2E8 JUMPI DUP1 PUSH4 0xB69EF8A8 EQ PUSH2 0x306 JUMPI DUP1 PUSH4 0xE37C6C82 EQ PUSH2 0x324 JUMPI DUP1 PUSH4 0xF9BD55CC EQ PUSH2 0x342 JUMPI PUSH2 0x121 JUMP JUMPDEST DUP1 PUSH4 0x9B267F09 EQ PUSH2 0x234 JUMPI DUP1 PUSH4 0x9E6BA9C2 EQ PUSH2 0x252 JUMPI DUP1 PUSH4 0xA2E7FE8A EQ PUSH2 0x270 JUMPI DUP1 PUSH4 0xAA994926 EQ PUSH2 0x28E JUMPI DUP1 PUSH4 0xAC729403 EQ PUSH2 0x2AC JUMPI PUSH2 0x121 JUMP JUMPDEST DUP1 PUSH4 0x2B36A762 GT PUSH2 0xF4 JUMPI DUP1 PUSH4 0x2B36A762 EQ PUSH2 0x19E JUMPI DUP1 PUSH4 0x3F346102 EQ PUSH2 0x1BC JUMPI DUP1 PUSH4 0x6B1D2C4E EQ PUSH2 0x1DA JUMPI DUP1 PUSH4 0x6E8D0C9E EQ PUSH2 0x1F8 JUMPI DUP1 PUSH4 0x924B3D21 EQ PUSH2 0x216 JUMPI PUSH2 0x121 JUMP JUMPDEST DUP1 PUSH4 0x18BAD217 EQ PUSH2 0x126 JUMPI DUP1 PUSH4 0x19BFF7DF EQ PUSH2 0x144 JUMPI DUP1 PUSH4 0x1DB19D8C EQ PUSH2 0x162 JUMPI DUP1 PUSH4 0x2543135B EQ PUSH2 0x180 JUMPI JUMPDEST PUSH1 0x0 DUP1 REVERT JUMPDEST PUSH2 0x12E PUSH2 0x360 JUMP JUMPDEST PUSH1 0x40 MLOAD PUSH2 0x13B SWAP2 SWAP1 PUSH2 0x541 JUMP JUMPDEST PUSH1 0x40 MLOAD DUP1 SWAP2 SUB SWAP1 RETURN JUMPDEST PUSH2 0x14C PUSH2 0x386 JUMP JUMPDEST PUSH1 0x40 MLOAD PUSH2 0x159 SWAP2 SWAP1 PUSH2 0x575 JUMP JUMPDEST PUSH1 0x40 MLOAD DUP1 SWAP2 SUB SWAP1 RETURN JUMPDEST PUSH2 0x16A PUSH2 0x38C JUMP JUMPDEST PUSH1 0x40 MLOAD PUSH2 0x177 SWAP2 SWAP1 PUSH2 0x5AB JUMP JUMPDEST PUSH1 0x40 MLOAD DUP1 SWAP2 SUB SWAP1 RETURN JUMPDEST PUSH2 0x188 PUSH2 0x39F JUMP JUMPDEST PUSH1 0x40 MLOAD PUSH2 0x195 SWAP2 SWAP1 PUSH2 0x575 JUMP JUMPDEST PUSH1 0x40 MLOAD DUP1 SWAP2 SUB SWAP1 RETURN JUMPDEST PUSH2 0x1A6 PUSH2 0x3A5 JUMP JUMPDEST PUSH1 0x40 MLOAD PUSH2 0x1B3 SWAP2 SWAP1 PUSH2 0x5AB JUMP JUMPDEST PUSH1 0x40 MLOAD DUP1 SWAP2 SUB SWAP1 RETURN JUMPDEST PUSH2 0x1C4 PUSH2 0x3B8 JUMP JUMPDEST PUSH1 0x40 MLOAD PUSH2 0x1D1 SWAP2 SWAP1 PUSH2 0x5DF JUMP JUMPDEST PUSH1 0x40 MLOAD DUP1 SWAP2 SUB SWAP1 RETURN JUMPDEST PUSH2 0x1E2 PUSH2 0x3BE JUMP JUMPDEST PUSH1 0x40 MLOAD PUSH2 0x1EF SWAP2 SWAP1 PUSH2 0x575 JUMP JUMPDEST PUSH1 0x40 MLOAD DUP1 SWAP2 SUB SWAP1 RETURN JUMPDEST PUSH2 0x200 PUSH2 0x3C4 JUMP JUMPDEST PUSH1 0x40 MLOAD PUSH2 0x20D SWAP2 SWAP1 PUSH2 0x575 JUMP JUMPDEST PUSH1 0x40 MLOAD DUP1 SWAP2 SUB SWAP1 RETURN JUMPDEST PUSH2 0x21E PUSH2 0x3CA JUMP JUMPDEST PUSH1 0x40 MLOAD PUSH2 0x22B SWAP2 SWAP1 PUSH2 0x5AB JUMP JUMPDEST PUSH1 0x40 MLOAD DUP1 SWAP2 SUB SWAP1 RETURN JUMPDEST PUSH2 0x23C PUSH2 0x3DB JUMP JUMPDEST PUSH1 0x40 MLOAD PUSH2 0x249 SWAP2 SWAP1 PUSH2 0x68A JUMP JUMPDEST PUSH1 0x40 MLOAD DUP1 SWAP2 SUB SWAP1 RETURN JUMPDEST PUSH2 0x25A PUSH2 0x469 JUMP JUMPDEST PUSH1 0x40 MLOAD PUSH2 0x267 SWAP2 SWAP1 PUSH2 0x5AB JUMP JUMPDEST PUSH1 0x40 MLOAD DUP1 SWAP2 SUB SWAP1 RETURN JUMPDEST PUSH2 0x278 PUSH2 0x47C JUMP JUMPDEST PUSH1 0x40 MLOAD PUSH2 0x285 SWAP2 SWAP1 PUSH2 0x5AB JUMP JUMPDEST PUSH1 0x40 MLOAD DUP1 SWAP2 SUB SWAP1 RETURN JUMPDEST PUSH2 0x296 PUSH2 0x48F JUMP JUMPDEST PUSH1 0x40 MLOAD PUSH2 0x2A3 SWAP2 SWAP1 PUSH2 0x5AB JUMP JUMPDEST PUSH1 0x40 MLOAD DUP1 SWAP2 SUB SWAP1 RETURN JUMPDEST PUSH2 0x2B4 PUSH2 0x4A2 JUMP JUMPDEST PUSH1 0x40 MLOAD PUSH2 0x2C1 SWAP2 SWAP1 PUSH2 0x6CD JUMP JUMPDEST PUSH1 0x40 MLOAD DUP1 SWAP2 SUB SWAP1 RETURN JUMPDEST PUSH2 0x2D2 PUSH2 0x4C8 JUMP JUMPDEST PUSH1 0x40 MLOAD PUSH2 0x2DF SWAP2 SWAP1 PUSH2 0x723 JUMP JUMPDEST PUSH1 0x40 MLOAD DUP1 SWAP2 SUB SWAP1 RETURN JUMPDEST PUSH2 0x2F0 PUSH2 0x4DB JUMP JUMPDEST PUSH1 0x40 MLOAD PUSH2 0x2FD SWAP2 SWAP1 PUSH2 0x757 JUMP JUMPDEST PUSH1 0x40 MLOAD DUP1 SWAP2 SUB SWAP1 RETURN JUMPDEST PUSH2 0x30E PUSH2 0x4E1 JUMP JUMPDEST PUSH1 0x40 MLOAD PUSH2 0x31B SWAP2 SWAP1 PUSH2 0x575 JUMP JUMPDEST PUSH1 0x40 MLOAD DUP1 SWAP2 SUB SWAP1 RETURN JUMPDEST PUSH2 0x32C PUSH2 0x4E7 JUMP JUMPDEST PUSH1 0x40 MLOAD PUSH2 0x339 SWAP2 SWAP1 PUSH2 0x5AB JUMP JUMPDEST PUSH1 0x40 MLOAD DUP1 SWAP2 SUB SWAP1 RETURN JUMPDEST PUSH2 0x34A PUSH2 0x4FA JUMP JUMPDEST PUSH1 0x40 MLOAD PUSH2 0x357 SWAP2 SWAP1 PUSH2 0x575 JUMP JUMPDEST PUSH1 0x40 MLOAD DUP1 SWAP2 SUB SWAP1 RETURN JUMPDEST PUSH1 0x8 PUSH1 0x1 SWAP1 SLOAD SWAP1 PUSH2 0x100 EXP SWAP1 DIV PUSH20 0xFFFFFFFFFFFFFFFFFFFFFFFFFFFFFFFFFFFFFFFF AND DUP2 JUMP JUMPDEST PUSH1 0x7 SLOAD DUP2 JUMP JUMPDEST PUSH1 0x1 PUSH1 0x5 SWAP1 SLOAD SWAP1 PUSH2 0x100 EXP SWAP1 DIV PUSH1 0xFF AND DUP2 JUMP JUMPDEST PUSH1 0x3 SLOAD DUP2 JUMP JUMPDEST PUSH1 0x1 PUSH1 0x4 SWAP1 SLOAD SWAP1 PUSH2 0x100 EXP SWAP1 DIV PUSH1 0xFF AND DUP2 JUMP JUMPDEST PUSH1 0xB SLOAD DUP2 JUMP JUMPDEST PUSH1 0x6 SLOAD DUP2 JUMP JUMPDEST PUSH1 0x5 SLOAD DUP2 JUMP JUMPDEST PUSH1 0x1 DUP1 SLOAD SWAP1 PUSH2 0x100 EXP SWAP1 DIV PUSH1 0xFF AND DUP2 JUMP JUMPDEST PUSH1 0x0 DUP1 SLOAD PUSH2 0x3E8 SWAP1 PUSH2 0x7A1 JUMP JUMPDEST DUP1 PUSH1 0x1F ADD PUSH1 0x20 DUP1 SWAP2 DIV MUL PUSH1 0x20 ADD PUSH1 0x40 MLOAD SWAP1 DUP2 ADD PUSH1 0x40 MSTORE DUP1 SWAP3 SWAP2 SWAP1 DUP2 DUP2 MSTORE PUSH1 0x20 ADD DUP3 DUP1 SLOAD PUSH2 0x414 SWAP1 PUSH2 0x7A1 JUMP JUMPDEST DUP1 ISZERO PUSH2 0x461 JUMPI DUP1 PUSH1 0x1F LT PUSH2 0x436 JUMPI PUSH2 0x100 DUP1 DUP4 SLOAD DIV MUL DUP4 MSTORE SWAP2 PUSH1 0x20 ADD SWAP2 PUSH2 0x461 JUMP JUMPDEST DUP3 ADD SWAP2 SWAP1 PUSH1 0x0 MSTORE PUSH1 0x20 PUSH1 0x0 KECCAK256 SWAP1 JUMPDEST DUP2 SLOAD DUP2 MSTORE SWAP1 PUSH1 0x1 ADD SWAP1 PUSH1 0x20 ADD DUP1 DUP4 GT PUSH2 0x444 JUMPI DUP3 SWAP1 SUB PUSH1 0x1F AND DUP3 ADD SWAP2 JUMPDEST POP POP POP POP POP DUP2 JUMP JUMPDEST PUSH1 0x1 PUSH1 0x0 SWAP1 SLOAD SWAP1 PUSH2 0x100 EXP SWAP1 DIV PUSH1 0xFF AND DUP2 JUMP JUMPDEST PUSH1 0x1 PUSH1 0x2 SWAP1 SLOAD SWAP1 PUSH2 0x100 EXP SWAP1 DIV PUSH1 0xFF AND DUP2 JUMP JUMPDEST PUSH1 0x1 PUSH1 0x3 SWAP1 SLOAD SWAP1 PUSH2 0x100 EXP SWAP1 DIV PUSH1 0xFF AND DUP2 JUMP JUMPDEST PUSH1 0x9 PUSH1 0x0 SWAP1 SLOAD SWAP1 PUSH2 0x100 EXP SWAP1 DIV PUSH20 0xFFFFFFFFFFFFFFFFFFFFFFFFFFFFFFFFFFFFFFFF AND DUP2 JUMP JUMPDEST PUSH1 0xC PUSH1 0x0 SWAP1 SLOAD SWAP1 PUSH2 0x100 EXP SWAP1 DIV PUSH1 0xF8 SHL DUP2 JUMP JUMPDEST PUSH1 0x2 SLOAD DUP2 JUMP JUMPDEST PUSH1 0xA SLOAD DUP2 JUMP JUMPDEST PUSH1 0x8 PUSH1 0x0 SWAP1 SLOAD SWAP1 PUSH2 0x100 EXP SWAP1 DIV PUSH1 0xFF AND DUP2 JUMP JUMPDEST PUSH1 0x4 SLOAD DUP2 JUMP JUMPDEST PUSH1 0x0 PUSH20 0xFFFFFFFFFFFFFFFFFFFFFFFFFFFFFFFFFFFFFFFF DUP3 AND SWAP1 POP SWAP2 SWAP1 POP JUMP JUMPDEST PUSH1 0x0 PUSH2 0x52B DUP3 PUSH2 0x500 JUMP JUMPDEST SWAP1 POP SWAP2 SWAP1 POP JUMP JUMPDEST PUSH2 0x53B DUP2 PUSH2 0x520 JUMP JUMPDEST DUP3 MSTORE POP POP JUMP JUMPDEST PUSH1 0x0 PUSH1 0x20 DUP3 ADD SWAP1 POP PUSH2 0x556 PUSH1 0x0 DUP4 ADD DUP5 PUSH2 0x532 JUMP JUMPDEST SWAP3 SWAP2 POP POP JUMP JUMPDEST PUSH1 0x0 DUP2 SWAP1 POP SWAP2 SWAP1 POP JUMP JUMPDEST PUSH2 0x56F DUP2 PUSH2 0x55C JUMP JUMPDEST DUP3 MSTORE POP POP JUMP JUMPDEST PUSH1 0x0 PUSH1 0x20 DUP3 ADD SWAP1 POP PUSH2 0x58A PUSH1 0x0 DUP4 ADD DUP5 PUSH2 0x566 JUMP JUMPDEST SWAP3 SWAP2 POP POP JUMP JUMPDEST PUSH1 0x0 DUP2 ISZERO ISZERO SWAP1 POP SWAP2 SWAP1 POP JUMP JUMPDEST PUSH2 0x5A5 DUP2 PUSH2 0x590 JUMP JUMPDEST DUP3 MSTORE POP POP JUMP JUMPDEST PUSH1 0x0 PUSH1 0x20 DUP3 ADD SWAP1 POP PUSH2 0x5C0 PUSH1 0x0 DUP4 ADD DUP5 PUSH2 0x59C JUMP JUMPDEST SWAP3 SWAP2 POP POP JUMP JUMPDEST PUSH1 0x0 DUP2 SWAP1 POP SWAP2 SWAP1 POP JUMP JUMPDEST PUSH2 0x5D9 DUP2 PUSH2 0x5C6 JUMP JUMPDEST DUP3 MSTORE POP POP JUMP JUMPDEST PUSH1 0x0 PUSH1 0x20 DUP3 ADD SWAP1 POP PUSH2 0x5F4 PUSH1 0x0 DUP4 ADD DUP5 PUSH2 0x5D0 JUMP JUMPDEST SWAP3 SWAP2 POP POP JUMP JUMPDEST PUSH1 0x0 DUP2 MLOAD SWAP1 POP SWAP2 SWAP1 POP JUMP JUMPDEST PUSH1 0x0 DUP3 DUP3 MSTORE PUSH1 0x20 DUP3 ADD SWAP1 POP SWAP3 SWAP2 POP POP JUMP JUMPDEST PUSH1 0x0 JUMPDEST DUP4 DUP2 LT ISZERO PUSH2 0x634 JUMPI DUP1 DUP3 ADD MLOAD DUP2 DUP5 ADD MSTORE PUSH1 0x20 DUP2 ADD SWAP1 POP PUSH2 0x619 JUMP JUMPDEST PUSH1 0x0 DUP5 DUP5 ADD MSTORE POP POP POP POP JUMP JUMPDEST PUSH1 0x0 PUSH1 0x1F NOT PUSH1 0x1F DUP4 ADD AND SWAP1 POP SWAP2 SWAP1 POP JUMP JUMPDEST PUSH1 0x0 PUSH2 0x65C DUP3 PUSH2 0x5FA JUMP JUMPDEST PUSH2 0x666 DUP2 DUP6 PUSH2 0x605 JUMP JUMPDEST SWAP4 POP PUSH2 0x676 DUP2 DUP6 PUSH1 0x20 DUP7 ADD PUSH2 0x616 JUMP JUMPDEST PUSH2 0x67F DUP2 PUSH2 0x640 JUMP JUMPDEST DUP5 ADD SWAP2 POP POP SWAP3 SWAP2 POP POP JUMP JUMPDEST PUSH1 0x0 PUSH1 0x20 DUP3 ADD SWAP1 POP DUP2 DUP2 SUB PUSH1 0x0 DUP4 ADD MSTORE PUSH2 0x6A4 DUP2 DUP5 PUSH2 0x651 JUMP JUMPDEST SWAP1 POP SWAP3 SWAP2 POP POP JUMP JUMPDEST PUSH1 0x0 PUSH2 0x6B7 DUP3 PUSH2 0x500 JUMP JUMPDEST SWAP1 POP SWAP2 SWAP1 POP JUMP JUMPDEST PUSH2 0x6C7 DUP2 PUSH2 0x6AC JUMP JUMPDEST DUP3 MSTORE POP POP JUMP JUMPDEST PUSH1 0x0 PUSH1 0x20 DUP3 ADD SWAP1 POP PUSH2 0x6E2 PUSH1 0x0 DUP4 ADD DUP5 PUSH2 0x6BE JUMP JUMPDEST SWAP3 SWAP2 POP POP JUMP JUMPDEST PUSH1 0x0 PUSH32 0xFF00000000000000000000000000000000000000000000000000000000000000 DUP3 AND SWAP1 POP SWAP2 SWAP1 POP JUMP JUMPDEST PUSH2 0x71D DUP2 PUSH2 0x6E8 JUMP JUMPDEST DUP3 MSTORE POP POP JUMP JUMPDEST PUSH1 0x0 PUSH1 0x20 DUP3 ADD SWAP1 POP PUSH2 0x738 PUSH1 0x0 DUP4 ADD DUP5 PUSH2 0x714 JUMP JUMPDEST SWAP3 SWAP2 POP POP JUMP JUMPDEST PUSH1 0x0 DUP2 SWAP1 POP SWAP2 SWAP1 POP JUMP JUMPDEST PUSH2 0x751 DUP2 PUSH2 0x73E JUMP JUMPDEST DUP3 MSTORE POP POP JUMP JUMPDEST PUSH1 0x0 PUSH1 0x20 DUP3 ADD SWAP1 POP PUSH2 0x76C PUSH1 0x0 DUP4 ADD DUP5 PUSH2 0x748 JUMP JUMPDEST SWAP3 SWAP2 POP POP JUMP JUMPDEST PUSH32 0x4E487B7100000000000000000000000000000000000000000000000000000000 PUSH1 0x0 MSTORE PUSH1 0x22 PUSH1 0x4 MSTORE PUSH1 0x24 PUSH1 0x0 REVERT JUMPDEST PUSH1 0x0 PUSH1 0x2 DUP3 DIV SWAP1 POP PUSH1 0x1 DUP3 AND DUP1 PUSH2 0x7B9 JUMPI PUSH1 0x7F DUP3 AND SWAP2 POP JUMPDEST PUSH1 0x20 DUP3 LT DUP2 SUB PUSH2 0x7CC JUMPI PUSH2 0x7CB PUSH2 0x772 JUMP JUMPDEST JUMPDEST POP SWAP2 SWAP1 POP JUMP INVALID LOG2 PUSH5 0x6970667358 0x22 SLT KECCAK256 DUP15 0xDF 0xCF DUP15 0x23 JUMP BALANCE 0xD2 JUMP PUSH29 0x9548E8E951E83A979803342E13F7C5A191119A3240FD64736F6C634300 ADDMOD GT STOP CALLER "
				},
				"gasEstimates": {
					"creation": {
						"codeDepositCost": "411200",
						"executionCost": "infinite",
						"totalCost": "infinite"
					},
					"external": {
						"_address()": "2588",
						"_address1()": "2625",
						"_bool()": "2516",
						"_bool1()": "2629",
						"_bool2()": "2588",
						"_bool3()": "2610",
						"_bool4()": "2544",
						"_bool5()": "2589",
						"_byte()": "2493",
						"_byte32()": "2474",
						"_int()": "2473",
						"_number()": "2539",
						"_number1()": "2518",
						"_number2()": "2496",
						"_number3()": "2475",
						"_numberbool()": "2559",
						"_string()": "infinite",
						"_uint()": "2519",
						"balance()": "2495"
					}
				},
				"methodIdentifiers": {
					"_address()": "18bad217",
					"_address1()": "ac729403",
					"_bool()": "9e6ba9c2",
					"_bool1()": "924b3d21",
					"_bool2()": "a2e7fe8a",
					"_bool3()": "aa994926",
					"_bool4()": "2b36a762",
					"_bool5()": "1db19d8c",
					"_byte()": "aeb6f292",
					"_byte32()": "3f346102",
					"_int()": "af45869e",
					"_number()": "f9bd55cc",
					"_number1()": "6e8d0c9e",
					"_number2()": "6b1d2c4e",
					"_number3()": "19bff7df",
					"_numberbool()": "e37c6c82",
					"_string()": "9b267f09",
					"_uint()": "2543135b",
					"balance()": "b69ef8a8"
				}
			},
			"storageLayout": {
				"storage": [
					{
						"astId": 4,
						"contract": "HelloWeb3.sol:HelloWeb3",
						"label": "_string",
						"offset": 0,
						"slot": "0",
						"type": "t_string_storage"
					},
					{
						"astId": 7,
						"contract": "HelloWeb3.sol:HelloWeb3",
						"label": "_bool",
						"offset": 0,
						"slot": "1",
						"type": "t_bool"
					},
					{
						"astId": 11,
						"contract": "HelloWeb3.sol:HelloWeb3",
						"label": "_bool1",
						"offset": 1,
						"slot": "1",
						"type": "t_bool"
					},
					{
						"astId": 16,
						"contract": "HelloWeb3.sol:HelloWeb3",
						"label": "_bool2",
						"offset": 2,
						"slot": "1",
						"type": "t_bool"
					},
					{
						"astId": 21,
						"contract": "HelloWeb3.sol:HelloWeb3",
						"label": "_bool3",
						"offset": 3,
						"slot": "1",
						"type": "t_bool"
					},
					{
						"astId": 26,
						"contract": "HelloWeb3.sol:HelloWeb3",
						"label": "_bool4",
						"offset": 4,
						"slot": "1",
						"type": "t_bool"
					},
					{
						"astId": 31,
						"contract": "HelloWeb3.sol:HelloWeb3",
						"label": "_bool5",
						"offset": 5,
						"slot": "1",
						"type": "t_bool"
					},
					{
						"astId": 35,
						"contract": "HelloWeb3.sol:HelloWeb3",
						"label": "_int",
						"offset": 0,
						"slot": "2",
						"type": "t_int256"
					},
					{
						"astId": 38,
						"contract": "HelloWeb3.sol:HelloWeb3",
						"label": "_uint",
						"offset": 0,
						"slot": "3",
						"type": "t_uint256"
					},
					{
						"astId": 41,
						"contract": "HelloWeb3.sol:HelloWeb3",
						"label": "_number",
						"offset": 0,
						"slot": "4",
						"type": "t_uint256"
					},
					{
						"astId": 46,
						"contract": "HelloWeb3.sol:HelloWeb3",
						"label": "_number1",
						"offset": 0,
						"slot": "5",
						"type": "t_uint256"
					},
					{
						"astId": 51,
						"contract": "HelloWeb3.sol:HelloWeb3",
						"label": "_number2",
						"offset": 0,
						"slot": "6",
						"type": "t_uint256"
					},
					{
						"astId": 56,
						"contract": "HelloWeb3.sol:HelloWeb3",
						"label": "_number3",
						"offset": 0,
						"slot": "7",
						"type": "t_uint256"
					},
					{
						"astId": 61,
						"contract": "HelloWeb3.sol:HelloWeb3",
						"label": "_numberbool",
						"offset": 0,
						"slot": "8",
						"type": "t_bool"
					},
					{
						"astId": 64,
						"contract": "HelloWeb3.sol:HelloWeb3",
						"label": "_address",
						"offset": 1,
						"slot": "8",
						"type": "t_address"
					},
					{
						"astId": 70,
						"contract": "HelloWeb3.sol:HelloWeb3",
						"label": "_address1",
						"offset": 0,
						"slot": "9",
						"type": "t_address_payable"
					},
					{
						"astId": 74,
						"contract": "HelloWeb3.sol:HelloWeb3",
						"label": "balance",
						"offset": 0,
						"slot": "10",
						"type": "t_uint256"
					},
					{
						"astId": 77,
						"contract": "HelloWeb3.sol:HelloWeb3",
						"label": "_byte32",
						"offset": 0,
						"slot": "11",
						"type": "t_bytes32"
					},
					{
						"astId": 82,
						"contract": "HelloWeb3.sol:HelloWeb3",
						"label": "_byte",
						"offset": 0,
						"slot": "12",
						"type": "t_bytes1"
					}
				],
				"types": {
					"t_address": {
						"encoding": "inplace",
						"label": "address",
						"numberOfBytes": "20"
					},
					"t_address_payable": {
						"encoding": "inplace",
						"label": "address payable",
						"numberOfBytes": "20"
					},
					"t_bool": {
						"encoding": "inplace",
						"label": "bool",
						"numberOfBytes": "1"
					},
					"t_bytes1": {
						"encoding": "inplace",
						"label": "bytes1",
						"numberOfBytes": "1"
					},
					"t_bytes32": {
						"encoding": "inplace",
						"label": "bytes32",
						"numberOfBytes": "32"
					},
					"t_int256": {
						"encoding": "inplace",
						"label": "int256",
						"numberOfBytes": "32"
					},
					"t_string_storage": {
						"encoding": "bytes",
						"label": "string",
						"numberOfBytes": "32"
					},
					"t_uint256": {
						"encoding": "inplace",
						"label": "uint256",
						"numberOfBytes": "32"
					}
				}
			},
			"userdoc": {
				"kind": "user",
				"methods": {},
				"version": 1
			}
		}
	}
}