{
	"03_Function.sol": {
		"FunctionTypes": {
			"abi": [
				{
					"inputs": [],
					"name": "add",
					"outputs": [],
					"stateMutability": "nonpayable",
					"type": "function"
				},
				{
					"inputs": [
						{
							"internalType": "uint256",
							"name": "_number",
							"type": "uint256"
						}
					],
					"name": "addPure",
					"outputs": [
						{
							"internalType": "uint256",
							"name": "new_number",
							"type": "uint256"
						}
					],
					"stateMutability": "pure",
					"type": "function"
				},
				{
					"inputs": [],
					"name": "addView",
					"outputs": [
						{
							"internalType": "uint256",
							"name": "new_number",
							"type": "uint256"
						}
					],
					"stateMutability": "view",
					"type": "function"
				},
				{
					"inputs": [],
					"name": "minusCall",
					"outputs": [],
					"stateMutability": "nonpayable",
					"type": "function"
				},
				{
					"inputs": [],
					"name": "minusPayable",
					"outputs": [
						{
							"internalType": "uint256",
							"name": "balance",
							"type": "uint256"
						}
					],
					"stateMutability": "payable",
					"type": "function"
				},
				{
					"inputs": [],
					"name": "number",
					"outputs": [
						{
							"internalType": "uint256",
							"name": "",
							"type": "uint256"
						}
					],
					"stateMutability": "view",
					"type": "function"
				}
			],
			"devdoc": {
				"kind": "dev",
				"methods": {},
				"version": 1
			},
			"evm": {
				"assembly": "    /* \"03_Function.sol\":58:867  contract FunctionTypes{\r... */\n  mstore(0x40, 0x80)\n    /* \"03_Function.sol\":108:109  5 */\n  0x05\n    /* \"03_Function.sol\":87:109  uint public number = 5 */\n  0x00\n  sstore\n    /* \"03_Function.sol\":58:867  contract FunctionTypes{\r... */\n  callvalue\n  dup1\n  iszero\n  tag_1\n  jumpi\n  0x00\n  dup1\n  revert\ntag_1:\n  pop\n  dataSize(sub_0)\n  dup1\n  dataOffset(sub_0)\n  0x00\n  codecopy\n  0x00\n  return\nstop\n\nsub_0: assembly {\n        /* \"03_Function.sol\":58:867  contract FunctionTypes{\r... */\n      mstore(0x40, 0x80)\n      jumpi(tag_1, lt(calldatasize, 0x04))\n      shr(0xe0, calldataload(0x00))\n      dup1\n      0x303810a6\n      eq\n      tag_2\n      jumpi\n      dup1\n      0x4f2be91f\n      eq\n      tag_3\n      jumpi\n      dup1\n      0x7032c4f2\n      eq\n      tag_4\n      jumpi\n      dup1\n      0x80b4ea08\n      eq\n      tag_5\n      jumpi\n      dup1\n      0x8381f58a\n      eq\n      tag_6\n      jumpi\n      dup1\n      0xb262eb7f\n      eq\n      tag_7\n      jumpi\n    tag_1:\n      0x00\n      dup1\n      revert\n        /* \"03_Function.sol\":729:863  function minusPayable() external payable returns(uint256 balance) {\r... */\n    tag_2:\n      tag_8\n      tag_9\n      jump\t// in\n    tag_8:\n      mload(0x40)\n      tag_10\n      swap2\n      swap1\n      tag_11\n      jump\t// in\n    tag_10:\n      mload(0x40)\n      dup1\n      swap2\n      sub\n      swap1\n      return\n        /* \"03_Function.sol\":147:208  function add() external{\r... */\n    tag_3:\n      callvalue\n      dup1\n      iszero\n      tag_12\n      jumpi\n      0x00\n      dup1\n      revert\n    tag_12:\n      pop\n      tag_13\n      tag_14\n      jump\t// in\n    tag_13:\n      stop\n        /* \"03_Function.sol\":238:357  function addPure(uint256 _number) external pure returns (uint256 new_number){\r... */\n    tag_4:\n      callvalue\n      dup1\n      iszero\n      tag_15\n      jumpi\n      0x00\n      dup1\n      revert\n    tag_15:\n      pop\n      tag_16\n      0x04\n      dup1\n      calldatasize\n      sub\n      dup2\n      add\n      swap1\n      tag_17\n      swap2\n      swap1\n      tag_18\n      jump\t// in\n    tag_17:\n      tag_19\n      jump\t// in\n    tag_16:\n      mload(0x40)\n      tag_20\n      swap2\n      swap1\n      tag_11\n      jump\t// in\n    tag_20:\n      mload(0x40)\n      dup1\n      swap2\n      sub\n      swap1\n      return\n        /* \"03_Function.sol\":640:696  function minusCall() external {\r... */\n    tag_5:\n      callvalue\n      dup1\n      iszero\n      tag_21\n      jumpi\n      0x00\n      dup1\n      revert\n    tag_21:\n      pop\n      tag_22\n      tag_23\n      jump\t// in\n    tag_22:\n      stop\n        /* \"03_Function.sol\":87:109  uint public number = 5 */\n    tag_6:\n      callvalue\n      dup1\n      iszero\n      tag_24\n      jumpi\n      0x00\n      dup1\n      revert\n    tag_24:\n      pop\n      tag_25\n      tag_26\n      jump\t// in\n    tag_25:\n      mload(0x40)\n      tag_27\n      swap2\n      swap1\n      tag_11\n      jump\t// in\n    tag_27:\n      mload(0x40)\n      dup1\n      swap2\n      sub\n      swap1\n      return\n        /* \"03_Function.sol\":387:490  function addView() external view returns(uint256 new_number) {\r... */\n    tag_7:\n      callvalue\n      dup1\n      iszero\n      tag_28\n      jumpi\n      0x00\n      dup1\n      revert\n    tag_28:\n      pop\n      tag_29\n      tag_30\n      jump\t// in\n    tag_29:\n      mload(0x40)\n      tag_31\n      swap2\n      swap1\n      tag_11\n      jump\t// in\n    tag_31:\n      mload(0x40)\n      dup1\n      swap2\n      sub\n      swap1\n      return\n        /* \"03_Function.sol\":729:863  function minusPayable() external payable returns(uint256 balance) {\r... */\n    tag_9:\n        /* \"03_Function.sol\":778:793  uint256 balance */\n      0x00\n        /* \"03_Function.sol\":806:813  minus() */\n      tag_33\n        /* \"03_Function.sol\":806:811  minus */\n      tag_34\n        /* \"03_Function.sol\":806:813  minus() */\n      jump\t// in\n    tag_33:\n        /* \"03_Function.sol\":834:855  address(this).balance */\n      selfbalance\n        /* \"03_Function.sol\":824:855  balance = address(this).balance */\n      swap1\n      pop\n        /* \"03_Function.sol\":729:863  function minusPayable() external payable returns(uint256 balance) {\r... */\n      swap1\n      jump\t// out\n        /* \"03_Function.sol\":147:208  function add() external{\r... */\n    tag_14:\n        /* \"03_Function.sol\":199:200  1 */\n      0x01\n        /* \"03_Function.sol\":190:196  number */\n      sload(0x00)\n        /* \"03_Function.sol\":190:200  number + 1 */\n      tag_36\n      swap2\n      swap1\n      tag_37\n      jump\t// in\n    tag_36:\n        /* \"03_Function.sol\":181:187  number */\n      0x00\n        /* \"03_Function.sol\":181:200  number = number + 1 */\n      dup2\n      swap1\n      sstore\n      pop\n        /* \"03_Function.sol\":147:208  function add() external{\r... */\n      jump\t// out\n        /* \"03_Function.sol\":238:357  function addPure(uint256 _number) external pure returns (uint256 new_number){\r... */\n    tag_19:\n        /* \"03_Function.sol\":295:313  uint256 new_number */\n      0x00\n        /* \"03_Function.sol\":348:349  1 */\n      0x01\n        /* \"03_Function.sol\":338:345  _number */\n      dup3\n        /* \"03_Function.sol\":338:349  _number + 1 */\n      tag_39\n      swap2\n      swap1\n      tag_37\n      jump\t// in\n    tag_39:\n        /* \"03_Function.sol\":325:349  new_number = _number + 1 */\n      swap1\n      pop\n        /* \"03_Function.sol\":238:357  function addPure(uint256 _number) external pure returns (uint256 new_number){\r... */\n      swap2\n      swap1\n      pop\n      jump\t// out\n        /* \"03_Function.sol\":640:696  function minusCall() external {\r... */\n    tag_23:\n        /* \"03_Function.sol\":681:688  minus() */\n      tag_41\n        /* \"03_Function.sol\":681:686  minus */\n      tag_34\n        /* \"03_Function.sol\":681:688  minus() */\n      jump\t// in\n    tag_41:\n        /* \"03_Function.sol\":640:696  function minusCall() external {\r... */\n      jump\t// out\n        /* \"03_Function.sol\":87:109  uint public number = 5 */\n    tag_26:\n      sload(0x00)\n      dup2\n      jump\t// out\n        /* \"03_Function.sol\":387:490  function addView() external view returns(uint256 new_number) {\r... */\n    tag_30:\n        /* \"03_Function.sol\":428:446  uint256 new_number */\n      0x00\n        /* \"03_Function.sol\":481:482  1 */\n      0x01\n        /* \"03_Function.sol\":472:478  number */\n      sload(0x00)\n        /* \"03_Function.sol\":472:482  number + 1 */\n      tag_43\n      swap2\n      swap1\n      tag_37\n      jump\t// in\n    tag_43:\n        /* \"03_Function.sol\":459:482  new_number = number + 1 */\n      swap1\n      pop\n        /* \"03_Function.sol\":387:490  function addView() external view returns(uint256 new_number) {\r... */\n      swap1\n      jump\t// out\n        /* \"03_Function.sol\":524:588  function minus() internal {\r... */\n    tag_34:\n        /* \"03_Function.sol\":579:580  1 */\n      0x01\n        /* \"03_Function.sol\":570:576  number */\n      sload(0x00)\n        /* \"03_Function.sol\":570:580  number - 1 */\n      tag_45\n      swap2\n      swap1\n      tag_46\n      jump\t// in\n    tag_45:\n        /* \"03_Function.sol\":561:567  number */\n      0x00\n        /* \"03_Function.sol\":561:580  number = number - 1 */\n      dup2\n      swap1\n      sstore\n      pop\n        /* \"03_Function.sol\":524:588  function minus() internal {\r... */\n      jump\t// out\n        /* \"#utility.yul\":7:146   */\n    tag_48:\n        /* \"#utility.yul\":53:58   */\n      0x00\n        /* \"#utility.yul\":91:97   */\n      dup2\n        /* \"#utility.yul\":78:98   */\n      calldataload\n        /* \"#utility.yul\":69:98   */\n      swap1\n      pop\n        /* \"#utility.yul\":107:140   */\n      tag_50\n        /* \"#utility.yul\":134:139   */\n      dup2\n        /* \"#utility.yul\":107:140   */\n      tag_51\n      jump\t// in\n    tag_50:\n        /* \"#utility.yul\":7:146   */\n      swap3\n      swap2\n      pop\n      pop\n      jump\t// out\n        /* \"#utility.yul\":152:481   */\n    tag_18:\n        /* \"#utility.yul\":211:217   */\n      0x00\n        /* \"#utility.yul\":260:262   */\n      0x20\n        /* \"#utility.yul\":248:257   */\n      dup3\n        /* \"#utility.yul\":239:246   */\n      dup5\n        /* \"#utility.yul\":235:258   */\n      sub\n        /* \"#utility.yul\":231:263   */\n      slt\n        /* \"#utility.yul\":228:347   */\n      iszero\n      tag_53\n      jumpi\n        /* \"#utility.yul\":266:345   */\n      tag_54\n      tag_55\n      jump\t// in\n    tag_54:\n        /* \"#utility.yul\":228:347   */\n    tag_53:\n        /* \"#utility.yul\":386:387   */\n      0x00\n        /* \"#utility.yul\":411:464   */\n      tag_56\n        /* \"#utility.yul\":456:463   */\n      dup5\n        /* \"#utility.yul\":447:453   */\n      dup3\n        /* \"#utility.yul\":436:445   */\n      dup6\n        /* \"#utility.yul\":432:454   */\n      add\n        /* \"#utility.yul\":411:464   */\n      tag_48\n      jump\t// in\n    tag_56:\n        /* \"#utility.yul\":401:464   */\n      swap2\n      pop\n        /* \"#utility.yul\":357:474   */\n      pop\n        /* \"#utility.yul\":152:481   */\n      swap3\n      swap2\n      pop\n      pop\n      jump\t// out\n        /* \"#utility.yul\":487:605   */\n    tag_57:\n        /* \"#utility.yul\":574:598   */\n      tag_59\n        /* \"#utility.yul\":592:597   */\n      dup2\n        /* \"#utility.yul\":574:598   */\n      tag_60\n      jump\t// in\n    tag_59:\n        /* \"#utility.yul\":569:572   */\n      dup3\n        /* \"#utility.yul\":562:599   */\n      mstore\n        /* \"#utility.yul\":487:605   */\n      pop\n      pop\n      jump\t// out\n        /* \"#utility.yul\":611:833   */\n    tag_11:\n        /* \"#utility.yul\":704:708   */\n      0x00\n        /* \"#utility.yul\":742:744   */\n      0x20\n        /* \"#utility.yul\":731:740   */\n      dup3\n        /* \"#utility.yul\":727:745   */\n      add\n        /* \"#utility.yul\":719:745   */\n      swap1\n      pop\n        /* \"#utility.yul\":755:826   */\n      tag_62\n        /* \"#utility.yul\":823:824   */\n      0x00\n        /* \"#utility.yul\":812:821   */\n      dup4\n        /* \"#utility.yul\":808:825   */\n      add\n        /* \"#utility.yul\":799:805   */\n      dup5\n        /* \"#utility.yul\":755:826   */\n      tag_57\n      jump\t// in\n    tag_62:\n        /* \"#utility.yul\":611:833   */\n      swap3\n      swap2\n      pop\n      pop\n      jump\t// out\n        /* \"#utility.yul\":920:1225   */\n    tag_37:\n        /* \"#utility.yul\":960:963   */\n      0x00\n        /* \"#utility.yul\":979:999   */\n      tag_66\n        /* \"#utility.yul\":997:998   */\n      dup3\n        /* \"#utility.yul\":979:999   */\n      tag_60\n      jump\t// in\n    tag_66:\n        /* \"#utility.yul\":974:999   */\n      swap2\n      pop\n        /* \"#utility.yul\":1013:1033   */\n      tag_67\n        /* \"#utility.yul\":1031:1032   */\n      dup4\n        /* \"#utility.yul\":1013:1033   */\n      tag_60\n      jump\t// in\n    tag_67:\n        /* \"#utility.yul\":1008:1033   */\n      swap3\n      pop\n        /* \"#utility.yul\":1167:1168   */\n      dup3\n        /* \"#utility.yul\":1099:1165   */\n      0xffffffffffffffffffffffffffffffffffffffffffffffffffffffffffffffff\n        /* \"#utility.yul\":1095:1169   */\n      sub\n        /* \"#utility.yul\":1092:1093   */\n      dup3\n        /* \"#utility.yul\":1089:1170   */\n      gt\n        /* \"#utility.yul\":1086:1193   */\n      iszero\n      tag_68\n      jumpi\n        /* \"#utility.yul\":1173:1191   */\n      tag_69\n      tag_70\n      jump\t// in\n    tag_69:\n        /* \"#utility.yul\":1086:1193   */\n    tag_68:\n        /* \"#utility.yul\":1217:1218   */\n      dup3\n        /* \"#utility.yul\":1214:1215   */\n      dup3\n        /* \"#utility.yul\":1210:1219   */\n      add\n        /* \"#utility.yul\":1203:1219   */\n      swap1\n      pop\n        /* \"#utility.yul\":920:1225   */\n      swap3\n      swap2\n      pop\n      pop\n      jump\t// out\n        /* \"#utility.yul\":1231:1422   */\n    tag_46:\n        /* \"#utility.yul\":1271:1275   */\n      0x00\n        /* \"#utility.yul\":1291:1311   */\n      tag_72\n        /* \"#utility.yul\":1309:1310   */\n      dup3\n        /* \"#utility.yul\":1291:1311   */\n      tag_60\n      jump\t// in\n    tag_72:\n        /* \"#utility.yul\":1286:1311   */\n      swap2\n      pop\n        /* \"#utility.yul\":1325:1345   */\n      tag_73\n        /* \"#utility.yul\":1343:1344   */\n      dup4\n        /* \"#utility.yul\":1325:1345   */\n      tag_60\n      jump\t// in\n    tag_73:\n        /* \"#utility.yul\":1320:1345   */\n      swap3\n      pop\n        /* \"#utility.yul\":1364:1365   */\n      dup3\n        /* \"#utility.yul\":1361:1362   */\n      dup3\n        /* \"#utility.yul\":1358:1366   */\n      lt\n        /* \"#utility.yul\":1355:1389   */\n      iszero\n      tag_74\n      jumpi\n        /* \"#utility.yul\":1369:1387   */\n      tag_75\n      tag_70\n      jump\t// in\n    tag_75:\n        /* \"#utility.yul\":1355:1389   */\n    tag_74:\n        /* \"#utility.yul\":1414:1415   */\n      dup3\n        /* \"#utility.yul\":1411:1412   */\n      dup3\n        /* \"#utility.yul\":1407:1416   */\n      sub\n        /* \"#utility.yul\":1399:1416   */\n      swap1\n      pop\n        /* \"#utility.yul\":1231:1422   */\n      swap3\n      swap2\n      pop\n      pop\n      jump\t// out\n        /* \"#utility.yul\":1428:1505   */\n    tag_60:\n        /* \"#utility.yul\":1465:1472   */\n      0x00\n        /* \"#utility.yul\":1494:1499   */\n      dup2\n        /* \"#utility.yul\":1483:1499   */\n      swap1\n      pop\n        /* \"#utility.yul\":1428:1505   */\n      swap2\n      swap1\n      pop\n      jump\t// out\n        /* \"#utility.yul\":1511:1691   */\n    tag_70:\n        /* \"#utility.yul\":1559:1636   */\n      0x4e487b7100000000000000000000000000000000000000000000000000000000\n        /* \"#utility.yul\":1556:1557   */\n      0x00\n        /* \"#utility.yul\":1549:1637   */\n      mstore\n        /* \"#utility.yul\":1656:1660   */\n      0x11\n        /* \"#utility.yul\":1653:1654   */\n      0x04\n        /* \"#utility.yul\":1646:1661   */\n      mstore\n        /* \"#utility.yul\":1680:1684   */\n      0x24\n        /* \"#utility.yul\":1677:1678   */\n      0x00\n        /* \"#utility.yul\":1670:1685   */\n      revert\n        /* \"#utility.yul\":1820:1937   */\n    tag_55:\n        /* \"#utility.yul\":1929:1930   */\n      0x00\n        /* \"#utility.yul\":1926:1927   */\n      dup1\n        /* \"#utility.yul\":1919:1931   */\n      revert\n        /* \"#utility.yul\":1943:2065   */\n    tag_51:\n        /* \"#utility.yul\":2016:2040   */\n      tag_82\n        /* \"#utility.yul\":2034:2039   */\n      dup2\n        /* \"#utility.yul\":2016:2040   */\n      tag_60\n      jump\t// in\n    tag_82:\n        /* \"#utility.yul\":2009:2014   */\n      dup2\n        /* \"#utility.yul\":2006:2041   */\n      eq\n        /* \"#utility.yul\":1996:2059   */\n      tag_83\n      jumpi\n        /* \"#utility.yul\":2055:2056   */\n      0x00\n        /* \"#utility.yul\":2052:2053   */\n      dup1\n        /* \"#utility.yul\":2045:2057   */\n      revert\n        /* \"#utility.yul\":1996:2059   */\n    tag_83:\n        /* \"#utility.yul\":1943:2065   */\n      pop\n      jump\t// out\n\n    auxdata: 0xa26469706673582212203c161c26a033aae1a060d036ae0c4b6bb31fdc988656cf6fc232c63a7e25698c64736f6c63430008070033\n}\n",
				"bytecode": {
					"linkReferences": {},
					"object": "6080604052600560005534801561001557600080fd5b50610334806100256000396000f3fe6080604052600436106100555760003560e01c8063303810a61461005a5780634f2be91f146100785780637032c4f21461008f57806380b4ea08146100cc5780638381f58a146100e3578063b262eb7f1461010e575b600080fd5b610062610139565b60405161006f9190610204565b60405180910390f35b34801561008457600080fd5b5061008d610149565b005b34801561009b57600080fd5b506100b660048036038101906100b191906101c8565b610160565b6040516100c39190610204565b60405180910390f35b3480156100d857600080fd5b506100e1610176565b005b3480156100ef57600080fd5b506100f8610180565b6040516101059190610204565b60405180910390f35b34801561011a57600080fd5b50610123610186565b6040516101309190610204565b60405180910390f35b600061014361019c565b47905090565b6001600054610158919061021f565b600081905550565b600060018261016f919061021f565b9050919050565b61017e61019c565b565b60005481565b60006001600054610197919061021f565b905090565b60016000546101ab9190610275565b600081905550565b6000813590506101c2816102e7565b92915050565b6000602082840312156101de576101dd6102e2565b5b60006101ec848285016101b3565b91505092915050565b6101fe816102a9565b82525050565b600060208201905061021960008301846101f5565b92915050565b600061022a826102a9565b9150610235836102a9565b9250827fffffffffffffffffffffffffffffffffffffffffffffffffffffffffffffffff0382111561026a576102696102b3565b5b828201905092915050565b6000610280826102a9565b915061028b836102a9565b92508282101561029e5761029d6102b3565b5b828203905092915050565b6000819050919050565b7f4e487b7100000000000000000000000000000000000000000000000000000000600052601160045260246000fd5b600080fd5b6102f0816102a9565b81146102fb57600080fd5b5056fea26469706673582212203c161c26a033aae1a060d036ae0c4b6bb31fdc988656cf6fc232c63a7e25698c64736f6c63430008070033",
					"opcodes": "PUSH1 0x80 PUSH1 0x40 MSTORE PUSH1 0x5 PUSH1 0x0 SSTORE CALLVALUE DUP1 ISZERO PUSH2 0x15 JUMPI PUSH1 0x0 DUP1 REVERT JUMPDEST POP PUSH2 0x334 DUP1 PUSH2 0x25 PUSH1 0x0 CODECOPY PUSH1 0x0 RETURN INVALID PUSH1 0x80 PUSH1 0x40 MSTORE PUSH1 0x4 CALLDATASIZE LT PUSH2 0x55 JUMPI PUSH1 0x0 CALLDATALOAD PUSH1 0xE0 SHR DUP1 PUSH4 0x303810A6 EQ PUSH2 0x5A JUMPI DUP1 PUSH4 0x4F2BE91F EQ PUSH2 0x78 JUMPI DUP1 PUSH4 0x7032C4F2 EQ PUSH2 0x8F JUMPI DUP1 PUSH4 0x80B4EA08 EQ PUSH2 0xCC JUMPI DUP1 PUSH4 0x8381F58A EQ PUSH2 0xE3 JUMPI DUP1 PUSH4 0xB262EB7F EQ PUSH2 0x10E JUMPI JUMPDEST PUSH1 0x0 DUP1 REVERT JUMPDEST PUSH2 0x62 PUSH2 0x139 JUMP JUMPDEST PUSH1 0x40 MLOAD PUSH2 0x6F SWAP2 SWAP1 PUSH2 0x204 JUMP JUMPDEST PUSH1 0x40 MLOAD DUP1 SWAP2 SUB SWAP1 RETURN JUMPDEST CALLVALUE DUP1 ISZERO PUSH2 0x84 JUMPI PUSH1 0x0 DUP1 REVERT JUMPDEST POP PUSH2 0x8D PUSH2 0x149 JUMP JUMPDEST STOP JUMPDEST CALLVALUE DUP1 ISZERO PUSH2 0x9B JUMPI PUSH1 0x0 DUP1 REVERT JUMPDEST POP PUSH2 0xB6 PUSH1 0x4 DUP1 CALLDATASIZE SUB DUP2 ADD SWAP1 PUSH2 0xB1 SWAP2 SWAP1 PUSH2 0x1C8 JUMP JUMPDEST PUSH2 0x160 JUMP JUMPDEST PUSH1 0x40 MLOAD PUSH2 0xC3 SWAP2 SWAP1 PUSH2 0x204 JUMP JUMPDEST PUSH1 0x40 MLOAD DUP1 SWAP2 SUB SWAP1 RETURN JUMPDEST CALLVALUE DUP1 ISZERO PUSH2 0xD8 JUMPI PUSH1 0x0 DUP1 REVERT JUMPDEST POP PUSH2 0xE1 PUSH2 0x176 JUMP JUMPDEST STOP JUMPDEST CALLVALUE DUP1 ISZERO PUSH2 0xEF JUMPI PUSH1 0x0 DUP1 REVERT JUMPDEST POP PUSH2 0xF8 PUSH2 0x180 JUMP JUMPDEST PUSH1 0x40 MLOAD PUSH2 0x105 SWAP2 SWAP1 PUSH2 0x204 JUMP JUMPDEST PUSH1 0x40 MLOAD DUP1 SWAP2 SUB SWAP1 RETURN JUMPDEST CALLVALUE DUP1 ISZERO PUSH2 0x11A JUMPI PUSH1 0x0 DUP1 REVERT JUMPDEST POP PUSH2 0x123 PUSH2 0x186 JUMP JUMPDEST PUSH1 0x40 MLOAD PUSH2 0x130 SWAP2 SWAP1 PUSH2 0x204 JUMP JUMPDEST PUSH1 0x40 MLOAD DUP1 SWAP2 SUB SWAP1 RETURN JUMPDEST PUSH1 0x0 PUSH2 0x143 PUSH2 0x19C JUMP JUMPDEST SELFBALANCE SWAP1 POP SWAP1 JUMP JUMPDEST PUSH1 0x1 PUSH1 0x0 SLOAD PUSH2 0x158 SWAP2 SWAP1 PUSH2 0x21F JUMP JUMPDEST PUSH1 0x0 DUP2 SWAP1 SSTORE POP JUMP JUMPDEST PUSH1 0x0 PUSH1 0x1 DUP3 PUSH2 0x16F SWAP2 SWAP1 PUSH2 0x21F JUMP JUMPDEST SWAP1 POP SWAP2 SWAP1 POP JUMP JUMPDEST PUSH2 0x17E PUSH2 0x19C JUMP JUMPDEST JUMP JUMPDEST PUSH1 0x0 SLOAD DUP2 JUMP JUMPDEST PUSH1 0x0 PUSH1 0x1 PUSH1 0x0 SLOAD PUSH2 0x197 SWAP2 SWAP1 PUSH2 0x21F JUMP JUMPDEST SWAP1 POP SWAP1 JUMP JUMPDEST PUSH1 0x1 PUSH1 0x0 SLOAD PUSH2 0x1AB SWAP2 SWAP1 PUSH2 0x275 JUMP JUMPDEST PUSH1 0x0 DUP2 SWAP1 SSTORE POP JUMP JUMPDEST PUSH1 0x0 DUP2 CALLDATALOAD SWAP1 POP PUSH2 0x1C2 DUP2 PUSH2 0x2E7 JUMP JUMPDEST SWAP3 SWAP2 POP POP JUMP JUMPDEST PUSH1 0x0 PUSH1 0x20 DUP3 DUP5 SUB SLT ISZERO PUSH2 0x1DE JUMPI PUSH2 0x1DD PUSH2 0x2E2 JUMP JUMPDEST JUMPDEST PUSH1 0x0 PUSH2 0x1EC DUP5 DUP3 DUP6 ADD PUSH2 0x1B3 JUMP JUMPDEST SWAP2 POP POP SWAP3 SWAP2 POP POP JUMP JUMPDEST PUSH2 0x1FE DUP2 PUSH2 0x2A9 JUMP JUMPDEST DUP3 MSTORE POP POP JUMP JUMPDEST PUSH1 0x0 PUSH1 0x20 DUP3 ADD SWAP1 POP PUSH2 0x219 PUSH1 0x0 DUP4 ADD DUP5 PUSH2 0x1F5 JUMP JUMPDEST SWAP3 SWAP2 POP POP JUMP JUMPDEST PUSH1 0x0 PUSH2 0x22A DUP3 PUSH2 0x2A9 JUMP JUMPDEST SWAP2 POP PUSH2 0x235 DUP4 PUSH2 0x2A9 JUMP JUMPDEST SWAP3 POP DUP3 PUSH32 0xFFFFFFFFFFFFFFFFFFFFFFFFFFFFFFFFFFFFFFFFFFFFFFFFFFFFFFFFFFFFFFFF SUB DUP3 GT ISZERO PUSH2 0x26A JUMPI PUSH2 0x269 PUSH2 0x2B3 JUMP JUMPDEST JUMPDEST DUP3 DUP3 ADD SWAP1 POP SWAP3 SWAP2 POP POP JUMP JUMPDEST PUSH1 0x0 PUSH2 0x280 DUP3 PUSH2 0x2A9 JUMP JUMPDEST SWAP2 POP PUSH2 0x28B DUP4 PUSH2 0x2A9 JUMP JUMPDEST SWAP3 POP DUP3 DUP3 LT ISZERO PUSH2 0x29E JUMPI PUSH2 0x29D PUSH2 0x2B3 JUMP JUMPDEST JUMPDEST DUP3 DUP3 SUB SWAP1 POP SWAP3 SWAP2 POP POP JUMP JUMPDEST PUSH1 0x0 DUP2 SWAP1 POP SWAP2 SWAP1 POP JUMP JUMPDEST PUSH32 0x4E487B7100000000000000000000000000000000000000000000000000000000 PUSH1 0x0 MSTORE PUSH1 0x11 PUSH1 0x4 MSTORE PUSH1 0x24 PUSH1 0x0 REVERT JUMPDEST PUSH1 0x0 DUP1 REVERT JUMPDEST PUSH2 0x2F0 DUP2 PUSH2 0x2A9 JUMP JUMPDEST DUP2 EQ PUSH2 0x2FB JUMPI PUSH1 0x0 DUP1 REVERT JUMPDEST POP JUMP INVALID LOG2 PUSH5 0x6970667358 0x22 SLT KECCAK256 EXTCODECOPY AND SHR 0x26 LOG0 CALLER 0xAA 0xE1 LOG0 PUSH1 0xD0 CALLDATASIZE 0xAE 0xC 0x4B PUSH12 0xB31FDC988656CF6FC232C63A PUSH31 0x25698C64736F6C634300080700330000000000000000000000000000000000 "
				},
				"gasEstimates": {
					"creation": {
						"codeDepositCost": "164000",
						"executionCost": "22314",
						"totalCost": "186314"
					},
					"external": {
						"add()": "infinite",
						"addPure(uint256)": "infinite",
						"addView()": "infinite",
						"minusCall()": "infinite",
						"minusPayable()": "infinite",
						"number()": "2495"
					},
					"internal": {
						"minus()": "infinite"
					}
				},
				"methodIdentifiers": {
					"add()": "4f2be91f",
					"addPure(uint256)": "7032c4f2",
					"addView()": "b262eb7f",
					"minusCall()": "80b4ea08",
					"minusPayable()": "303810a6",
					"number()": "8381f58a"
				}
			},
			"storageLayout": {
				"storage": [
					{
						"astId": 4,
						"contract": "03_Function.sol:FunctionTypes",
						"label": "number",
						"offset": 0,
						"slot": "0",
						"type": "t_uint256"
					}
				],
				"types": {
					"t_uint256": {
						"encoding": "inplace",
						"label": "uint256",
						"numberOfBytes": "32"
					}
				}
			},
			"userdoc": {
				"kind": "user",
				"methods": {},
				"version": 1
			}
		}
	}
}